:020000040800F2
:10000000401200209D010008DF280008A5250008F7
:10001000DD2800086D0800082147000800000000E6
:100020000000000000000000000000005D2A000841
:1000300031090008000000005B2A0008892A000836
:10004000B7010008B7010008B7010008B7010008B0
:10005000B7010008B7010008B7010008B7010008A0
:10006000B7010008B7010008B7010008B701000890
:10007000B7010008B7010008B7010008B701000880
:10008000B7010008B7010008B7010008B701000870
:10009000B7010008B7010008B7010008B701000860
:1000A000B7010008B7010008B7010008B701000850
:1000B000B7010008B7010008B7010008B701000840
:1000C000B7010008B7010008B7010008B701000830
:1000D000B7010008B7010008B7010008B701000820
:1000E000B7010008B7010008B7010008B701000810
:1000F000B7010008B7010008B7010008B701000800
:10010000B7010008B7010008B7010008B7010008EF
:10011000B7010008B7010008B7010008B7010008DF
:1001200081080008B7010008B7010008B7010008FE
:10013000B7010008B7010008B7010008B7010008BF
:10014000B7010008B7010008B7010008E12800085E
:10015000B7010008B7010008B7010008B70100089F
:10016000B7010008B7010008B7010008B70100088F
:10017000B7010008B7010008B7010008000000003F
:10018000B7010008B7010008DFF80CD000F056FAFC
:1001900000480047B1470008401200200648804749
:1001A00006480047FEE7FEE7FEE7FEE7FEE7FEE75C
:1001B000FEE7FEE7FEE7FEE73D2C000889010008A8
:1001C0002DE9F05F0546002092469B46884606468C
:1001D000814640241BE0284641464746224600F01F
:1001E00089F953465A46C01A914110D31146184610
:1001F000224600F070F92D1A67EB01084F4622469F
:100200000120002100F067F917EB00094E41201E84
:10021000A4F10104DFDC484631462A464346BDE8E6
:10022000F09F40EA01039B0703D009E008C9121FB1
:1002300008C0042AFAD203E011F8013B00F8013BA0
:10024000521EF9D27047D2B201E000F8012B491ECC
:10025000FBD270470022F6E710B513460A46044663
:100260001946FFF7F0FF204610BD2DE9FE4F81EA49
:10027000030404F0004421F0004100944FF0000B0F
:1002800023F0004350EA01045ED052EA03045BD03D
:10029000C3F30A54C1F30A552C44A4F2F334019475
:1002A000A0FB0254C1F3130141F48011C3F3130303
:1002B00043F4801301FB024400FB034E840A970AB7
:1002C00044EA815447EA8357A4FB076802958D0AE4
:1002D00005FB07854FEA932C04FB0C542705029D70
:1002E0004FEA065847EA1637B5EB08056EEB070CE0
:1002F000870E920E47EA811742EA8312A7FB02019A
:10030000B6EB0B0164EB00042B0D43EA0C335E18D3
:1003100044EB1C50DA465146E7FB0201C5F31304D7
:100320004FEA0B3343EA14534FEA0432019C43EA89
:100330000603A4F10C040294009CCDE900B400F083
:100340002FF903B0BDE8F08F00200146F9E72DE951
:10035000F04D81EA030404F0004B21F000451446FF
:100360004FF0000A23F0004150EA050220D054EA81
:1003700001021DD0C5F30A570246C5F31303C1F3AA
:100380001300C1F30A5640F4801543F48013A7EB21
:100390000608101BD64608F2FD3873EB050002D3A1
:1003A00008F1010801E092185B41B8F1000F03DA8F
:1003B00000200146BDE8F08D00204FF48011064674
:1003C00084460EE0171B73EB050705D3121B63EB86
:1003D000050306434CEA010C49084FEA3000921825
:1003E0005B4150EA0107EDD152EA030012D082EAE4
:1003F000040083EA0501084305D0101BAB4106D277
:100400000122002306E000224FF0004302E06FF0DB
:10041000010253101AEB06004CEB085110EB0A00D6
:1004200041EB0B01BDE8F04D00F0ABB80EB540F26A
:10043000334102910021CDE900110A460B4600F03C
:10044000AFF803B000BDC1F30A5210B5C1F31301F8
:1004500040F2FF3341F480119A4201DA002010BDCE
:1004600040F233439A42A2F2334203DC524200F09C
:1004700041F810BD904010BD00F0004230F0004047
:100480000AD0C10D01F56071C0F3160042EA0151B6
:10049000C20840071143704700200146704701F031
:1004A000004330B421F0004150EA010206D00A0DA9
:1004B000A2F56072C1F31301002A02DC30BC0020F7
:1004C0007047440F44EAC104C100E01830BC00EB9F
:1004D000C25000F01FB8202A04DB203A00FA02F1D3
:1004E000002070479140C2F1200320FA03F3194322
:1004F00090407047202A04DB203A21FA02F00021C4
:10050000704721FA02F3D040C2F120029140084323
:10051000194670470029A8BF7047401C490008BF12
:1005200020F00100704710B4B0FA80FC00FA0CF023
:1005300050EA010404BF10BC704749B1CCF120045B
:1005400021FA04F411FA0CF118BF012121430843E8
:10055000A3EB0C01CB1D4FEA00614FEA102042BF14
:10056000002010BC704700EBC35010440029A4BF0A
:1005700010BC7047401C490008BF20F0010010BCAF
:10058000704710B5141E73F1000408DA401C41F1E5
:10059000000192185B411A4301D120F0010010BD07
:1005A0002DE9F04D92469B4611B1B1FA81F202E07D
:1005B000B0FA80F220329046FFF78DFF04460F46D6
:1005C00040EA0A0041EA0B0153465A46084313D059
:1005D000114653EA010019D0C8F140025046FFF716
:1005E00089FF05460E46504659464246FFF773FFBF
:1005F000084305D0012004E020463946BDE8F08DCF
:100600000020054346EAE0762C4337430A98630509
:10061000E40AA0EB08000022FD0A44EA47540A302D
:1006200002D500200146E9E7010510196941DDE91D
:10063000084500196941BDE8F04DA2E7064C074D99
:1006400006E0E06840F0010394E8070098471034A2
:10065000AC42F6D3FFF79CFDD0490008F0490008F2
:1006600070B58C1810F8015B15F0070301D110F874
:10067000013B2A1106D110F8012B03E010F8016BA1
:1006800001F8016B5B1EF9D12B0705D40023521E24
:100690000DD401F8013BFAE710F8013BCB1A921C8C
:1006A00003E013F8015B01F8015B521EF9D5A1428A
:1006B000D8D3002070BD10B50146806B026C12F0DB
:1006C000500F05D0026CD20626D500F0DBF910BD24
:1006D000016C41F40071016401688A6812F0405FA6
:1006E00017D1027EAAB9CA6A12F4700F02D08A68C2
:1006F00052050ED44A6822F020024A60016C21F4AF
:1007000080710164016CC90403D4016C41F00101E2
:10071000016400F0B5F910BD806BC26CBDE81040FB
:100720000846104710B5806B40210164416C41F0D0
:100730000401416400F0A6F910BD10B5806B00F013
:10074000A0F910BD464910B54A6822F440324A600B
:100750004A6843681A434A6001684A6822F4807212
:100760004A6001684A68036942EA03224A600168F4
:100770004A6822F040724A6001684A6883681A43F6
:100780004A6001688A6822F400628A6001688A68A7
:10079000C3681A438A60816A6FF07062D14201684F
:1007A0008A6822F070628A6001688A680CD0836A65
:1007B0001A438A6001688A6822F040528A600168A0
:1007C0008A68C36A1A4301E022F040528A600168D5
:1007D0008A6822F002028A6001688A68037E42EA1F
:1007E00043028A6090F82010002901684A680FD0FF
:1007F00042F400624A6001684A6822F460424A603A
:1008000001684A68174C436A04EB43331A4301E01A
:1008100022F400624A600168CA6A22F47002CA6265
:100820000168CA6A838B104C04EB03531A43CA62F3
:1008300001688A6822F400728A6001688A6890F808
:10084000303042EA43228A6001688A6822F480627A
:100850008A6001688A68406942EA8020886010BD29
:100860000023014000E0FFFF0000F0FFFEE7002052
:1008700070470020704710B503F0A4FD002010BDA4
:10088000014800F0C9BA0000D8020020016818230E
:10089000CAB2103AB2FBF3F2054B6FF30901032A17
:1008A0009B5CC36500D9091D81650846704700003F
:1008B000B849000810B5014600208B698A6A4FF0DC
:1008C000C07453B1B3F5005F15D072B1012A0CD0DA
:1008D000022A0AD0032A09D104E01AB1012A06D05B
:1008E000022A03D1C96AC90100D5012010BDC96A15
:1008F000A142FAD010BD002AF7D0012AF2D0022A74
:10090000F3D0032AF3D010BD30B50468256825F470
:1009100080252560046863608368402B036803D0EA
:1009200099600068C26030BD9A600068C16030BDE7
:100930007047704778B50024009490F83C20012A55
:1009400019D0012280F83C200A6807230568092A8B
:1009500013D9EE680A3A02EB420293409E43EE60DE
:100960000B788A680A3B03EB43039A400368DD680F
:100970002A43DA6010E0022078BD2E6902EB4202C1
:1009800093409E432E610B788A6803EB43039A40A1
:1009900003681D692A431A614A681F23072A13D274
:1009A00005686E6B521E02EB820293409E436E639B
:1009B0000B790A885B1E92B203EB83039A400368AB
:1009C0005D6B2A435A6327E005680D2A12D22E6B0D
:1009D000D21F02EB820293409E432E630B790A885A
:1009E000DB1F92B203EB83039A4003681D6B2A431B
:1009F0001A6311E0EE6A0D3A02EB820293409E43C5
:100A0000EE620B790A880D3B92B203EB83039A40A6
:100A10000368DD6A2A43DA62164B0568144A9D4270
:100A200006D10D68122D03D1556845F48005556037
:100A300005689D4218D10B68102B01D0112B13D1E2
:100A4000536843F400035360096810290CD10A4924
:100A50000A4A0968B1FBF2F101EB8101490000E0AB
:100A6000491E00910029FBD180F83C40002078BD50
:100A70000023014000200140EC00002040420F0014
:100A800070477047704770B504004FF0000503D001
:100A9000206C002610B107E0012070BD204600F058
:100AA0001DF8666484F83C60206CC00610D4206C8D
:100AB00020F4885040F0020020642046FFF742FEF8
:100AC0006664206C20F0020040F00100206400E029
:100AD000012584F83C60284670BD000070B586B0E2
:100AE000064614216846FFF7B5FB24493068884262
:100AF00042D123480025016841F4807101600068FB
:100B00001F4900F4807014390590086840F0010016
:100B10000860086800F001000590086840F00200D5
:100B200008600868032400F0020005908A208DE820
:100B300031006946134800F0F3FA02208DE83100D5
:100B40006946114800F0ECFA114C1048C4E9000560
:100B50000015A560C4E90350400060618000A061F9
:100B60004011C4E907052046656200F025FA08B186
:100B7000FFF7DFFEB463A66306B070BD002001403E
:100B80004438024000000240000402401064024069
:100B9000D8020020F8B50E4600210446009190F8D6
:100BA0003C00012807D0012084F83C0020688368BD
:100BB000DB0702D011E00220F8BD836843F0010397
:100BC00083603748374B0068B0FBF3F000EB400020
:100BD00000E0401E00900028FBD120688368DB07FE
:100BE0005CD0236C40F20165AB4343F48073236413
:100BF0004068400505D5206C20F4005040F480503A
:100C00002064206CC00404D5606C20F00600606491
:100C100000E0616484F83C10A16B2448224DC86355
:100C2000A16B23480864A16B2248C86421686FF057
:100C3000220008602068416841F0806141602068BE
:100C4000816841F4807181602168134632464C31DD
:100C5000A06B00F01BFA68681749C006206806D030
:100C600088421BD1816811F0405F13D016E08842A2
:100C7000F8D0124A904203D1D1F80423D206F1D021
:100C80000F4A90420AD1D1F8041301F01F01102934
:100C9000E8D303E0816841F0804181600020F8BD25
:100CA000EC00002040420F0000230140B70600087E
:100CB0003B070008250700080020014000210140F3
:100CC0000022014070B54379012B1AD001264671EC
:100CD0000223037105682C6840F6FE7393409C4321
:100CE000D1E900310B43934023432B6001680B682B
:100CF000C0249440A3430B60067100214171084653
:100D000070BD022070BD70B5040003D020790025AD
:100D100010B105E0012070BD6571204600F008F8B3
:100D200002202071256101202071002070BD00008B
:100D300010B586B0044614216846FFF78BFA1149B6
:100D4000206888421CD110480021026842F00052FD
:100D50000260006800F0005005900B4810380268EF
:100D600042F001020260006800F0010005903020AE
:100D700000900320CDE901016946044800F0D0F954
:100D800006B010BD00740040403802400000024030
:100D900018B5046800940068104421B11430009024
:100DA0000360002018BD0830F9E730B54279012A08
:100DB00016D0012242710223037103681D6802FAF2
:100DC00001F425431D60002901680B680AD00C68F6
:100DD00003F4802304F46014B3F5802F0FD015E0E2
:100DE000022030BD0C6803F0040304F03804042B27
:100DF0000CD1382C0AD14B6843F0010305E0B4F55F
:100E0000601F03D14B6843F002034B600271002165
:100E10004171084630BD00002DE9F84304464FF00B
:100E20000009CDF8009063484FF41651A56D006895
:100E3000B0FBF1F72E6894F85C10082000FA01F17D
:100E400031420FD021680A6852070BD50A6822F098
:100E500004020A6094F85C108840A860606D40F05D
:100E60000100606594F85C104FF0010808FA01F089
:100E7000304208D021684969090604D5A860606D30
:100E800040F00200606594F85C1004208840304215
:100E900008D021680968890704D5A860606D40F012
:100EA0000400606594F85C1010208840304218D02F
:100EB00021680968090714D5A860206801684903FA
:100EC00004D50068000308D5A16C07E00168C905D6
:100ED00003D4016821F008010160216C09B12046AA
:100EE000884794F85C1020208840304231D0216837
:100EF0000968C9062DD5A86094F835000528206832
:100F0000016806D0490347D5006800031DD4616C11
:100F10001CE021F0160101602068416921F0800188
:100F20004161206C08B9A06C20B12068016821F0F3
:100F30000801016094F85C103F208840A86084F8A4
:100F4000349084F83580216D1FE0E16B09B12046B3
:100F50008847606D00282BD0606DC00714D0052035
:100F600084F835002068016821F0010101600098D3
:100F7000401C0090B84203D820680068C007F6D132
:100F800084F8349084F83580E16C002910D001B0E9
:100F90002046BDE8F04308470168C905D5D401687B
:100FA00021F01001016084F8349084F83580CCE79A
:100FB000BDE8F883EC0000202DE9F041044600F084
:100FC00095F906465CB1002584F83450022084F877
:100FD00035002068016821F0010101600DE0012069
:100FE000BDE8F08100F082F9801B052805D920209A
:100FF0006065032084F83500F2E720680068C007C8
:10100000F0D12268116820480140D4E90103184357
:10101000D4E903363343184363691843A36918437B
:10102000E3691843236A18430843616A042903D11A
:10103000D4E90B1319430843106020684069666ABD
:1010400020F0070130460E43012704280CD1A06A86
:101050000643E06A40B12046FFF72CFC20B1402057
:10106000606584F83570BAE7206846612046FFF76E
:101070000DFC94F85C203F2191408160656584F807
:1010800035700020ACE700003F8010F02DE9F04102
:101090000446866D90F83400002501280DD001200B
:1010A00084F8340094F835700020012F07D084F8BC
:1010B000340002252846BDE8F0810220FBE7022724
:1010C00084F8357060652046FFF71EFC94F85C10CC
:1010D0003F208840B0602068016841F0160101603F
:1010E000206C20B12068016841F00801016020688F
:1010F000016841F001010160DCE7000070B50446C1
:1011000000F0F4F80546601C02D00448007804445E
:1011100000F0ECF8401BA042FAD370BDE0000020C4
:101120002DE9F84F00224FF0010803254FF00F0E74
:101130000B6808FA02F42340A3426ED14E68012ED8
:1011400005D0022E03D0112E01D0122E12D18668A6
:101150004FEA420C05FA0CF7BE43CF6807FA0CF7CA
:10116000374387604668A6430C79C4F30014944063
:1011700034434460C668570005FA07FC8C6826EAC9
:101180000C06BC403443C4604C68022C01D0122CC5
:1011900013D1D40800EB8404A346D4F8209054075C
:1011A0004FEAD46A0EFA0AF629EA06090E6906FA27
:1011B0000AF646EA0906CBF8206006680C7926EAAA
:1011C0000C0604F00304BC40344304604C68E400A3
:1011D00065D5364C266846F480462660246822F0A1
:1011E000030604F480440094314C3444A446D4F8FB
:1011F00008489607370F0EFA07F6B4432D4EB04253
:1012000001D1002624E02C4EB04201D101261FE07E
:101210002A4EB04202D102261AE040E0284EB042E7
:1012200001D1032614E0274EB04201D104260FE07D
:10123000254EB04201D105260AE0244EB04201D12C
:10124000062605E0224EB04201D1072600E008261E
:10125000BE402643CCF808681E4E34684F689C4355
:10126000FF0300D51C4334601A4C241D26684F68C8
:101270009E43BF0300D51E432660164E08363468D1
:101280004F689C43FF0200D51C433460114E0C365E
:1012900034684F689C43BF0200D51C433460521C25
:1012A000102AFFF445AFBDE8F88F00004438024033
:1012B00000300140000002400004024000080240EB
:1012C000000C0240001002400014024000180240CE
:1012D000001C0240003C01400069084000D0012091
:1012E00070470AB1816170470904FBE701488068D3
:1012F00070470000E0000020024881680278114435
:1013000081607047E00000200B4810B5016841F48F
:1013100000710160016841F480610160016841F47D
:1013200080710160032000F06FF8002000F006F8E3
:1013300000F024F8002010BD003C024070B50D4DB7
:1013400004464FF47A712878B1FBF0F00A49096835
:10135000B1FBF0F000F074FF48B9102C07D2002266
:101360002146501E00F030F800206C6070BD012056
:1013700070BD0000E0000020EC0000200A4808B525
:10138000016841F480410160006800F480400090F1
:101390000548001F016841F080510160006800F0BD
:1013A0008050009008BD000044380240002809DB4E
:1013B00000F01F02012191404009800000F1E0206F
:1013C000C0F8001170470000F0B40E4B1B680C46CB
:1013D000C3F30223C3F10705042D00D90425191D09
:1013E000072901D2002300E0DB1E012606FA05F1E1
:1013F000491E214099409E40761E16403143F0BC64
:1014000003F08FB90CED00E0064900F00702086810
:101410004FF6FF03184040EA0220034A10430860D9
:10142000704700000CED00E00000FA05704700680E
:10143000416200207047F0B50368586A39B19C6A70
:101440004FF4827600EB144400204D1E0AE040EA7F
:10145000024098620FE006EB8007DF59401C04EB66
:101460001744C0B2A842F6D344EA02404FF4807257
:1014700002EB810158500020F0BDD0F8040402F0C6
:101480008EB8C1EBC10200EB8202D0F80404926C6A
:1014900001F0F9BFC1EBC10200EB8202D0F80404F5
:1014A000D2F8082202F044B8D0F8040402F079B867
:1014B00070B504460B0601F00F00C0EBC00104EB51
:1014C00081014FF001024FF0000503D581F83D2066
:1014D0003C3103E081F8FD5101F5FE71087094F88C
:1014E000BC03012808D084F8BC23206802F0EEFB7E
:1014F00084F8BC53002070BD022070BD70B5044656
:1015000001F00F006268904201D9012070BD0B0606
:1015100001F00F01C1EBC10104EB81014FF00102A9
:101520004FF0000503D581F83D203C3103E081F800
:10153000FD5101F5FE718D70087094F8BC0301280F
:1015400008D084F8BC23206802F0B6FD84F8BC53B0
:10155000002070BD022070BD2DE9F04104460F0649
:1015600001F00F00C0EBC00104EB81014FF0010658
:101570004FF0000503D581F83D603C3103E081F870
:10158000FD5101F5FE7108708A60CB704A7802B196
:10159000C880022B00D10D7194F8BC03012809D03A
:1015A00084F8BC63206802F0EDFA284684F8BC5346
:1015B000BDE8F0810220FBE770B50C4601F00F0595
:1015C000C5EBC50100EB8101C1F81032C1F808225A
:1015D0000023C1F8143281F8FD3181F8FC51036910
:1015E00001F5FE71012B00D10A612207027C00681F
:1015F00003D002F0B9FD002070BD02F0A5FCFAE7AF
:1016000070B504460D4601F00F006168884201D9AB
:10161000012070BD29064FF000064FF0010207D5EA
:10162000C0EBC00104EB810181F83D203C3107E0B3
:10163000C5EBC50104EB810181F8FD6101F5FE7187
:101640008A70087094F8BC03012807D084F8BC2382
:10165000206802F05DFD280702D007E0022070BD7F
:10166000217C04F57172206802F0FAFC84F8BC63F6
:10167000002070BD70B50C4601F00F05C5EBC5012B
:1016800000EB81010B658A6400234B65012381F81F
:101690003D3001F83C5F0369012B00D10A6122074C
:1016A000027C006803D002F05FFD002070BD02F0F4
:1016B0004BFCFAE72DE9FC5F05680446284602F07A
:1016C0007CFE00287ED1206802F06AFF002879D0D5
:1016D000206802F065FF800704D52168486900F0A2
:1016E00002004861206802F05BFFC10604F57170DA
:1016F000009034D52068816921F0100181612F6A42
:1017000007F00F00C0EBC00004EB8006C7F34340B6
:1017100006F5FE76022802D0062811D01AE047F618
:10172000F070074216D0C7F30A1217462846F16830
:1017300002F03AFFF0683844F060B069384408E0DD
:1017400008222846009902F02FFFB069C7F30A115A
:101750000844B0612068816941F01001816120680E
:1017600002F01EFF00034FF0010A4FF0080B5BD59B
:101770000026206802F0F3FE0746DFF8689351E088
:10178000F8074DD0F1B2206802F002FF8046C00792
:1017900007D005EB4611C1F808AB3146204601F0F1
:1017A000A5F85FEA087022D505EB4611C1F808BB21
:1017B0002068016C00EB46100191D0F8082B4945D8
:1017C00007D900E08BE1110403D54FF40041C0F8C4
:1017D000081B204600F076FA0198484507D9206991
:1017E000012804D120680121009A02F039FC5FEA47
:1017F000C86004D505EB46111020C1F8080B5FEA5C
:10180000886004D505EB46112020C1F8080B5FEA7B
:10181000884005D505EB46104FF40051C0F8081B71
:101820007F08761C002FABD1206802F0B9FE400380
:101830004FF000095CD5206802F08AFE07460026BA
:1018400054E0F80750D0F1B2206802F08FFE8046D5
:10185000C00723D006F00F020AFA02F0D5F83428A8
:101860008243C5F8342805EB4610C0F808A9206962
:1018700001280FD1C6EBC60004EB8000D0E911218E
:101880001144816436B9206D20B920680121009A85
:1018900002F0E6FBF1B22046FFF7F3FD5FEA0870C5
:1018A00003D505EB4611C1F808B95FEAC86004D555
:1018B00005EB46111020C1F808095FEA486004D51D
:1018C00005EB46114020C1F808095FEA887004D58D
:1018D00005EB46110220C1F808095FEA086003D54C
:1018E0003146204601F068F87F08761C002FA8D109
:1018F000206802F055FE002811DAD5F8040820F01F
:101900000100C5F8040894F8F403012829D0204602
:1019100000F0BCF92068416901F000414161206894
:1019200002F03EFE00050BD5D5F80808C00702D02E
:10193000204600F0EFF92068416901F4006141613F
:10194000206802F02DFEC00468D5D5F8040820F008
:101950000100C5F804081021206802F00FFD0021E5
:1019600027E084F8F49300212046FFF75FFDD1E7DC
:1019700005EB41104FF67F32C0F80829D0F8003946
:1019800023F40013C0F80039D0F8003943F00063A5
:10199000C0F80039C0F8082BD0F8002B22F4001250
:1019A000C0F8002BD0F8002B42F00062C0F8002BEA
:1019B000491C60688842DBD8D5F81C0840F001104B
:1019C000C5F81C08206B60B1D5F8840840F00B0006
:1019D000C5F88408D5F8440840F00B00C5F8440861
:1019E0000CE0D5F8141842F22B000143C5F8141886
:1019F000D5F8100840F00B00C5F81008D5F800081D
:101A000020F4FE60C5F80008217C2068009A02F0EE
:101A100027FB2068416901F480514161206802F090
:101A2000BFFD800415D5206802F0ECF8206802F0B4
:101A3000B7FCE06000F020FA0146227B206802F04B
:101A4000E9FD204600F00CF92068416901F40051DD
:101A50004161206802F0A4FD000707D5204600F090
:101A600019F92068416901F008014161206802F01C
:101A700097FDC00208D50021204600F035F8206807
:101A8000416901F480114161206802F089FD800202
:101A900008D50021204600F02BF82068416901F4A8
:101AA00000114161206802F07BFD400007D520460F
:101AB000FFF7E3FC2068416901F080414161206843
:101AC00002F06EFD40070AD520684568680702D518
:101AD0002046FFF7E9FC2068416829434160BDE8E2
:101AE000FC9F00000A30544FD0F8040401F0A6BD5A
:101AF000D0F8040401F0A4BD2DE9F0418AB004003F
:101B000005D094F8BD032668002520B108E0012027
:101B10000AB0BDE8F08184F8BC53204600F05EF8BE
:101B2000032084F8BD03F06BC00500D42561206854
:101B300002F004FA04F11001282288466846FEF7F4
:101B400070FB94E80F0002F06BF80226C8BB00217E
:101B5000206802F037FD002001270EE0C0EBC00135
:101B600004EB810181F83D7001F83C0FC880CD7015
:101B70008D60CD60401CC0B24D6161688142EDD87E
:101B8000002011E0C0EBC00104EB810181F8FD51A0
:101B900081F8FC0181F8FF51C1F80452C1F80852E4
:101BA000401CC0B2C1F8105261688142EAD82822B4
:101BB00041466846FEF735FB94E80F0002F004F951
:101BC00010B184F8BD63A2E784F8385084F8BD737F
:101BD000206802F0EDF800209AE7000010B586B00A
:101BE000044614216846FEF735FB2068B0F1A04F8B
:101BF0002FD119480021026842F0010202600068FA
:101C000000F0010005904FF4C05000900220CDE993
:101C10000101032003900A20049069460F48FFF752
:101C20007FFA0D48001D016841F0800101600A48FB
:101C30001430016841F4804101600068002200F422
:101C40008040059011464320FFF7BEFB4320FFF77D
:101C5000ADFB06B010BD000030380240000002406D
:101C600070B50446C068012570B1022801D0FEF7A6
:101C700060FE2946D4F8040401F038FDD4F80404C9
:101C8000BDE8704001F0F3BC0025F2E7D0F8040491
:101C900001F016BDD0F8040401F01CBD10B50446D7
:101CA00090F8BC0301280BD0012084F8BC0384F811
:101CB0003810206802F09DFC002084F8BC0310BDA1
:101CC000022010BDD0F8042400F57171104601F017
:101CD00019BD10B50446006894F8BC13012906D05C
:101CE000012184F8BC13A16A012902D008E0022076
:101CF00010BDA169012903D0816B41F4803181635A
:101D0000206802F049F8206802F022FB002084F8E5
:101D1000BC0310BD10B50446D0F8040401F034FD36
:101D20002068D0F8001E41F00101C0F8001E206AB2
:101D3000002804D00248016841F00601016010BD8E
:101D400010ED00E02DE9F0470E46050065D0DFF804
:101D50001481D8F80000F7B200F00F00B04207D2AB
:101D600088F80070D8F8000000F00F00B04254D19D
:101D700028683D4C810712D5400703D5206840F400
:101D8000E05020602878000703D5206840F46040C8
:101D900020602068A96820F0F000084320602878BF
:101DA000C0072DD0304968680839012812D00228B0
:101DB00013D0032811D00968890700292DDA21687A
:101DC00021F0030101432160FFF790FA814641F2BF
:101DD000883A0EE009688903EFE709688901ECE7B2
:101DE000FFF784FAA0EB0901514502D90320BDE8B1
:101DF000F0872068696800F00C00B0EB810FEFD12C
:101E0000D8F80010404601F00F01B14207D9077021
:101E1000006800F00F00B04201D00120E7E7287809
:101E2000400705D52068E96820F4E05008432060A9
:101E30002878000706D52068296920F4604040EA28
:101E4000C100206000F01EF82168084AC1F30311A8
:101E5000515CC8400649086006480068FFF76EFA02
:101E60000020C4E7003C024008380240C049000896
:101E7000EC000020E40000200148006870470000EA
:101E8000EC000020154810B5006810F00C02144852
:101E900013D04110042A0FD0082A0ED10F4C241F52
:101EA0002268236802F03F025B0207D52068C0F376
:101EB0008810A0FB010106E0084610BD2168C1F3AF
:101EC0008811A1FB00010023FEF77AF92168C1F314
:101ED0000141491C4900B0FBF1F010BD0838024037
:101EE0000024F4002DE9F84F04006ED02078DFF8CC
:101EF0003C93C007A9F104054AD009F10400016828
:101F0000C1F38101012908D00068C0F381000228D3
:101F10000AD1D9F80000400206D52868800337D5D9
:101F200060680028E1D033E06068B0F5803F10D0F1
:101F3000B0F5A02F286810D020F4803028602868E1
:101F400020F4802028606068A8B1FFF7CFF906462A
:101F50000DE0286840F48030F4E740F480202860E9
:101F6000F7E700BFFFF7C2F9801B642873D8286821
:101F70008003F7D50CE0FFF7B9F9064605E000BF8E
:101F8000FFF7B4F9801B6428F0D828688003F7D4E1
:101F90002078DFF89C8280074FF0000A3ED5A348E6
:101FA000001D016811F00C0F08D00068C0F381001B
:101FB00002280BD1D9F80000400207D42868800716
:101FC00016D5E068012800D112E02BE1E068B8B135
:101FD0000120C8F80000FFF789F9064605E000BFB8
:101FE000FFF784F9801B0228C0D828688007F7D53E
:101FF0002868216920F0F80040EAC10028600DE05F
:10200000C8F800A0FFF772F9064604E0FFF76EF982
:10201000801B02281FD828688007F7D42078000783
:1020200022D5824E83486169703671B10121016009
:10203000FFF75CF9074604E0FFF758F9C01B0228D8
:1020400009D830688007F7D50EE0C0F800A0FFF788
:102050004DF9074605E082E0FFF748F9C01B02286A
:102060007DD830688007F7D42078400768D5DFF83E
:10207000BCB100270BF13C0BDBF80000C0000BD417
:10208000DBF8001041F08051CBF80010DBF80000C5
:10209000012700F080500090674E3068C00510D4D2
:1020A000306840F480703060FFF720F9009005E060
:1020B000FFF71CF90099401A022850D83068C00573
:1020C000F6D55A4EA0686C3601280FD00528306826
:1020D00010D020F001003060306820F00400306043
:1020E000A068B8B1FFF702F900900FE0306840F047
:1020F0000100F4E740F004003060F7E7FFF7F6F87E
:102100000099411A41F28830814266D830688007D0
:10211000F4D50EE0FFF7EAF8009007E0FFF7E6F8E5
:102120000099411A41F28830814256D830688007C0
:10213000F4D42FB1DBF8001021F08051CBF800105F
:10214000A069C8B33949091D0968C1F38101022991
:102150004AD00228504607D0C8F8600000E03CE0B2
:10216000FFF7C4F804463BE04746C8F86000FFF7B5
:10217000BDF8064605E000BFFFF7B8F8801B02284F
:102180002BD828688001F7D4D4E907010843A16A55
:102190002A4A490802EB0141626A41EA8211084376
:1021A00094F82C1040EA0161C9F80010012038664B
:1021B000FFF79CF8044606E036E000BFFFF796F80C
:1021C000001B022809D828688001F7D52CE000BF41
:1021D000FFF78CF8001B022802D90320BDE8F88F16
:1021E00028688001F4D41FE00128F7D0D9F8000056
:1021F000E26900F48001914214D1226A00F03F01AB
:1022000091420FD147F6C071626A0140914209D1F3
:10221000A26A00F44031914204D1E16A00F070609A
:10222000884201D00120D9E70020D7E704380240D6
:1022300000004742800E4742007000400000FFFF50
:1022400010B5401EB0F1807F01D3012010BD4FF0CA
:10225000E02460610F21601702F063FA0020A061A2
:1022600007202061002010BD10B590F83C20012A05
:1022700022D0012280F83C20CA688C6822F4407287
:1022800022434C6822F4806222430C6822F40062EC
:1022900022430C6922F4805222434C6922F40052FA
:1022A0002243C969002322F480420A4301684A6438
:1022B00080F83C30002010BD022010BD70B590F8B1
:1022C0003C20012A32D0012480F83C40022280F8D0
:1022D0003D2003685A689D6822F070060A68324300
:1022E0005A60134B02689A4214D0B2F1804F11D059
:1022F000104B9A420ED0104B9A420BD00F4B9A4281
:1023000008D00F4B9A4205D00E4B9A4202D00E4B8A
:102310009A4204D1496825F080031943916080F8FE
:102320003D40002180F83C10084670BD022070BD81
:10233000000001400004004000080040000C004084
:1023400000040140004001400018004030B587B053
:10235000044614216846FDF77DFF2468164D0022CF
:10236000164802230121AC4210D1046844F0100445
:102370000460006800F01000059048020090CDE96C
:102380000132CDE9032169460D4811E0B4F1804FD7
:1023900010D1046844F00104046000680091CDE9A4
:1023A000013200F00100CDE90410039269460548AE
:1023B000FEF7B6FE07B030BD0000014030380240E5
:1023C000001002400000024070B5044690F83C0046
:1023D0000D4601280DD0012684F83C60022084F8C7
:1023E0003D0042B1042A18D0082A2AD00C2A4DD127
:1023F00039E0022070BD206800F0A0FC20688169EF
:1024000041F0080181612068816921F00401816146
:10241000206881692A69114311E0206800F0BEFC40
:102420002068816941F4006181612068816921F43B
:1024300080618161206881692A6941EA02218161A4
:1024400024E0206800F0E0FC2068C16941F0080148
:10245000C1612068C16921F00401C1612068C169BE
:102460002A69114311E0206800F002FD2068C1696B
:1024700041F40061C1612068C16921F48061C161DA
:102480002068C1692A6941EA0221C16184F83D607E
:10249000002084F83C0070BD10B5040003D094F80F
:1024A0003D0010B107E0012010BD002084F83C0081
:1024B000204600F00DF8022084F83D00211D206820
:1024C00000F0CAFB012084F83D00002010BD000090
:1024D00008B500680949884201D1094804E0B0F113
:1024E000804F09D10648001F016841F001010160D9
:1024F000006800F00100009008BD000000000140ED
:102500004438024010B504460068012200F008FC7F
:102510000B492068884202D00A49884203D1416CA5
:1025200041F4004141642068816801F007010629F7
:1025300003D0016841F001010160002010BD0000DE
:10254000000001400004014010B50446006800226C
:1025500000F0E6FB114841F211122168931081420C
:1025600002D00F48814209D1086A104206D1086A98
:10257000184203D1486C20F4004048642068016A86
:10258000114206D1016A194203D1016821F001010B
:102590000160012084F83D00002010BD00000140D2
:1025A00000040140FEE70000F0B500230A243025B6
:1025B00037261F4611E000BFB4EB107F02D905EBB0
:1025C000107C01E006EB107C01F813C001EB430C1A
:1025D00000015B1C8CF80170DBB29342ECD3F0BDC0
:1025E0007FB500241D480094019402941A49039475
:1025F000016001254FF480310561C0E901140476C2
:1026000080F820401649C0E90A140426C661C46057
:1026100080F830504561FEF736FA0095CDE9015457
:1026200069460E48FEF786F903240220CDE90040F2
:1026300069460A48FEF77EF90720CDE9000469469D
:102640000648FEF777F90920CDE9000669460348F8
:10265000FEF770F97FBD000000200140D00100208E
:102660000100000F2DE9F04F87B014216846FDF7F7
:10267000F1FD44480024016841F010010160016847
:1026800001F010010591016841F0800101600168CD
:1026900001F080010591016841F0010101600168CC
:1026A00001F001010591016841F00201016001683A
:1026B00001F002010591016841F004010160016827
:1026C00001F004010591016841F008010160006812
:1026D0002D4E00F00800059000222A213046FEF71A
:1026E00000FEDFF8A8A0002240215046FEF7F9FDC9
:1026F000DFF89CB04FF42A78002241465846FEF796
:10270000F0FD2A2000900125CDE9015469463046AC
:102710000394FEF705FD4027CDE90074DFF87490BF
:10272000694648460294FEF7FBFC4FF428600226F7
:102730008DE8510069464846FEF7F2FC4FF402402E
:102740008DE8510069461448FEF7EAFC14208DE834
:10275000510069465046FEF7E3FC0097CDE901546D
:10276000694650460394FEF7DBFCCDF80080CDE9C6
:102770000154694658460394FEF7D2FC07B0BDE801
:10278000F08F00003038024000100240000C024080
:1027900000040240000802400000024010B592B060
:1027A00000240F941C2108A81094FDF753FD20214C
:1027B0006846FDF74FFD1B481949C0E9001441F276
:1027C000DF51C0E90241046144618461FFF764FEA6
:1027D0000F940FA913481094FFF770FD6020089024
:1027E0004FF42F60CDE909040B940C940D94002252
:1027F00008A90C480E94FFF7E7FD00944FF4005031
:10280000CDE9044002940194039469460548079475
:10281000FFF72AFD0348FFF799FD12B010BD000035
:10282000000001402C02002010B58AB0002407945B
:102830001C2168460894FDF70DFD12484FF08041B9
:10284000C0E9001441F26701C0E9024104618461FA
:10285000FFF722FE079407A90A480894FFF72EFD08
:102860006020009040F63300CDE901040022694663
:1028700004480494FFF7A8FD0248FFF767FD0AB07B
:1028800010BD00006C02002010B500220F49104856
:1028900000F0CDFD08B1FEF74CF80E490C4800F0F1
:1028A0009BFF08B1FEF745F80B49094800F099FB7A
:1028B00008B1FEF73EF8064801F008F8002803D0FA
:1028C000BDE81040FEF735B810BD00004000002004
:1028D00064030020F4000020D0000020FEE77047D1
:1028E0000148FEF7E7BE0000340600202DE9F04164
:1028F00003680D4604461E6C03EB4511D1F8080B26
:10290000D4F810E04FF400474FF0200C04F571723A
:10291000BEF1010F09D0DFF898E0764539D1020405
:1029200032D500BFC1F8087B3FE0224B5FEA007E52
:1029300004D59E4239D90004F4D436E05FEA806EB3
:1029400002D5C1F808CB30E010F0280F2DD19E42FF
:1029500001D90004E6D4C5EBC50004EB8000D1F832
:10296000101BD0F80432C1F31201591AC0F8141226
:10297000D0F808121944C0F8081295B9D4F810021A
:1029800078B9012120680AE080060AD5C1F808CB91
:1029900007E035B9D4F8100218B90021184601F043
:1029A0005FFBE9B22046FEF775FD0020BDE8F0812F
:1029B0000A31544F0A30544F2DE9F84F0E46C1EBFF
:1029C000C60100EB810481460568D4E914103C344B
:1029D000884202D90120BDE8F88F081AA168814217
:1029E00000D20846C01C870805EB46181BE000BF54
:1029F000A0EB010AA068504500D282460AF103000C
:102A0000870899F8100000901FFA8AF3F2B228465E
:102A1000E16801F073FEE16801EB0A00E060A16982
:102A200001EB0A00A061D8F8180980B2B84205D3BA
:102A3000D4E90501814201D20028D9D1D4E90501A8
:102A4000884208D806F00F0101208840D5F83418D4
:102A50008143C5F834180020BDE7704770470178FE
:102A6000407841EA0020704710B52C2204490548FF
:102A7000FDF7D7FBBDE810402C21024800F0D2BA88
:102A800010000020AC0200202DE9F0413F482DED60
:102A9000048B0188491C89B20180B1F5FA7F6FD19E
:102AA0003B4D002101802888FDF7C0FC9FED398B4C
:102AB00053EC182BFDF7D9FB9FED389B53EC192BEA
:102AC000FDF7D3FBFDF7EBFC364CE0616888FDF7C2
:102AD000ADFC53EC182BFDF7C8FB53EC192BFDF79D
:102AE000C4FBFDF7DCFC2062A888FDF79FFC53ECDB
:102AF000182BFDF7BAFB53EC192BFDF7B6FBFDF7CE
:102B0000CEFC6062E888FDF791FC53EC182BFDF7D2
:102B1000ACFB53EC192BFDF7A8FBFDF7C0FC224DD5
:102B2000A06240212846FEF7D7FB20758021284669
:102B3000FEF7D2FB60756E1531462846FEF7CCFBDA
:102B400031461A4EA0753046FEF7C6FBE0754FF4CD
:102B5000004739463046FEF7BFFB20763946284607
:102B6000FEF7BAFB124D607604212846FEF7B4FB4F
:102B7000A07610212846FEF7AFFBE076FFF774FF42
:102B8000BDEC048BBDE8F041FEF7B6BB3C00002075
:102B9000080000206666666666660A40000000005F
:102BA0000000303F100000200008024000000240FA
:102BB000000C024030B593B030216846FDF74AFB67
:102BC00014210CA8FDF746FB1A480025016841F0C6
:102BD00080510160006800F0805011901648016833
:102BE00041F4804101600068022400F480401190AB
:102BF00001200090000401908001CDE906400820EA
:102C000008904FF4A870CDE9090407200B9068469E
:102C1000FFF768F90CA90F2081E831004FF4A050AC
:102C20000F90E002109005210CA8FFF78BF813B06D
:102C300030BD000040380240007000400548016887
:102C400041F47001016003494FF000608039086071
:102C50007047000088ED00E0F0B50268254C264D75
:102C6000264E274F274B4FF0804CA04209D060459D
:102C700007D0A84205D0B04203D0B84201D0984254
:102C800004D122F0700E4A6842EA0E02A0421BD024
:102C9000604519D0A84217D0B04215D0B84213D021
:102CA000984211D0184DA8420ED0184DA8420BD012
:102CB000174DA84208D0174DA84205D0164DA8427E
:102CC00002D0164DA84203D122F44075CA682A43A7
:102CD0004D6922F080022A4302608A68C2620A6853
:102CE0008262A04201D0984201D1096901630121A9
:102CF0004161F0BD000001400004004000080040B8
:102D0000000C00400004014000400140004401402C
:102D10000048014000180040001C00400020004016
:102D200010B501F01F030121046A99408C4304622D
:102D3000016A9A401143016210BD0000F0B5026AB9
:102D400022F001020262036A42688469124E24F092
:102D500073050C682C4323F002058B682B430D4D43
:102D6000A84201D0B04205D123F00807CB683B430D
:102D700023F00403A84201D0B04205D14D6922F4EA
:102D8000407215438A692A434260846149684163FD
:102D90000362F0BD0000014000040140F0B5026A8A
:102DA00022F010020262026A436884690D6824F40A
:102DB000E64444EA05248D6822F0200242EA051226
:102DC0000F4D104EA84201D0B04206D1CF6822F07C
:102DD000800242EA071222F04002A84201D0B0422B
:102DE00007D14D6923F4406343EA85038D6943EAC3
:102DF000850343608461496881630262F0BD00001D
:102E00000000014000040140F0B5026A22F4807223
:102E10000262026A4368C46922F4007224F07305F6
:102E20000C68124E2C438D6842EA05220E4DA842D2
:102E300001D0B04206D1CF6822F4006242EA0722F4
:102E400022F48062A84201D0B04207D14D6923F438
:102E5000405343EA05138D6943EA05134360C46197
:102E60004968C1630262F0BD0000014000040140F6
:102E700030B5026A22F480520262046A4268C36971
:102E80000D6823F4E64343EA05238D6824F40054D7
:102E900044EA0534084DA84202D0084DA84204D1A6
:102EA0004D6922F4804242EA85124260C36149685A
:102EB0000164046230BD00000000014000040140D4
:102EC000D0F8BC02002180F850100846704710B5B9
:102ED000D0F8BC2242B1D0F8C00251781278C36851
:102EE00010469847002010BD032010BD70B5044661
:102EF000812100F0BFFA0025258765870121204642
:102F000000F0B8FAA4F87851A4F87A51D4F8BC02C9
:102F100048B1D4F8C00204F52F7480688047206857
:102F200001F01EFC2560002070BD10B5D0F8BC4239
:102F3000E16C012908D1D0F8C00223786178C26819
:102F4000184690470020E064002010BD0A2101804F
:102F500000487047BC0100202921018000487047CB
:102F60002C010020292101800048704758010020D1
:102F70002921018000487047840100202DE9F0419B
:102F80000446542001F0E2FC05004FF0000624D076
:102F90000520C4F8BC526087A4F87A0140230322BC
:102FA0008121204600F04EFB012727874023032282
:102FB0003946204600F046FBA4F8787185F8506049
:102FC000D4F8C0024068804740232A4601212046A9
:102FD00000F044FB0020BDE8F0810220C4F8BC6290
:102FE000F9E719B1C0F8C0120020704703207047FC
:102FF00010B51346D0F8BC2222B190F89C42032CA5
:1030000002D00DE0032010BD92F850400CB1012019
:1030100010BD012482F850400A46812100F0BDFB1A
:10302000002010BD0A4610B501460248FFF7E0FF38
:1030300040B210BD64030020F8B50022D0F8BC32C5
:10304000ADF800200E781546144616F0600622D022
:10305000202E5AD14A78921E0A2A56D2DFE802F070
:1030600010085555555555140C05887818644FE0CF
:10307000012203F1400139E04888000A586447E022
:10308000012203F1440131E00122DA64CA881946C1
:1030900000F069F83CE04E78062E10D003DC3EB11B
:1030A000012E32D134E00A2E23D00B2E2DD128E070
:1030B00090F89C22032A28D10222694616E04B8808
:1030C0002226B6EB132F07D1CA88402A00D9402206
:1030D000D0F8C0120D6808E02126B6EB132F04D1FA
:1030E000CA880E4D092A00D90922294600F055F850
:1030F0000EE090F89C22032A07D1012203F1480137
:10310000F4E790F89C22032A04D000F021F803246D
:103110002046F8BD88789864FAE70000B0010020E6
:1031200010B5D0F8B8220AB152689047002010BDFF
:10313000134610B50A46002100F090FA002010BD99
:10314000134610B50A46002100F027FB002010BDF1
:1031500010B50446802100F005FB2046BDE8104074
:10316000002100F0FFBA10B50323C0F85821C0F8C1
:103170009432C0F85C2113460A46002100F06EFA32
:10318000002010BD10B505210023C0F894121A4686
:10319000194600F063FA002010BD10B502238261C9
:1031A000C0F89432C26113460A46002100F0F5FAD5
:1031B000002010BD10B504210023C0F894121A4657
:1031C000194600F0EAFA002010BD000010B50A46CA
:1031D000024903A000F0FBF8004810BD3C0A0020A3
:1031E000437573746F6D2048494420436F6E666960
:1031F000670000001220088000487047600000202F
:1032000010B50A46024903A000F0E1F8004810BDDD
:103210003C0A0020437573746F6D2048494420496F
:103220006E746572666163650000000004200880AA
:10323000004870475C00002010B50A46024903A010
:1032400000F0C5F8004810BD3C0A00204175746FBD
:103250006D6174696F6E20616E6420436F6E74726D
:103260006F6C204465706172746D656E740000004F
:1032700010B50A46024903A000F0A9F8004810BDA5
:103280003C0A002050432D6261736564206D6561C6
:10329000737572656D656E7420616E6420636F6E08
:1032A00074726F6C2070726F6A6563740000000046
:1032B00010B51A2008800A480168001D0468001D26
:1032C0000068081809D008220649FFF76DF905497A
:1032D000042210312046FFF767F90248801E10BD16
:1032E000107AFF1F76000020F8B504460020ADF8E4
:1032F000000048880D46010A08295FD2DFE801F086
:103300005E0409175E5E3C45D4F8B412207C0A685E
:1033100019E0207C02260028D4F8B80205D0C16A42
:10332000684688470146467039E0816AF8E7C0B2CE
:10333000062843D2DFE800F0030A1014181CD4F862
:10334000B402426805E0694690471CE0D4F8B40234
:10335000826892B3207CF6E7D4F8B402C268F8E73A
:10336000D4F8B4020269F4E7D4F8B4024269F0E791
:10337000D4F8B4028269ECE7207CF0B9D4F8B80242
:10338000416B68468847014609E0207CA8B9D4F81B
:10339000B802016B68468847014607204870EA88F2
:1033A0008AB1BDF8000040B1824200D90246ADF8B2
:1033B00000202046FFF7F1FEF8BDFFE72946204632
:1033C000FFF7C6FEF8E72046FFF7F4FEF4E770B516
:1033D000002300281ED00025044602E06D1CEDB23B
:1033E000641C2678002EF9D1022404EB45041480D5
:1033F0001278CA545B1C0322CA5400245B1C06E0EA
:10340000CA545B1CDAB28C54521CD3B2401C0278F2
:10341000002AF5D170BD01004FF0000004D0012951
:1034200001D0022901D0032070470120704730B439
:10343000A0B1D0F8B84200230CB1C0F8B832D0F82F
:10344000CC420CB1C0F8CC3209B1C0F8B4120121A1
:1034500080F89C12027030BC00F0B0B830BC032081
:10346000704710B5D0F8C402FEF748F8BDE8104028
:10347000FFF7D1BF10B5D0F8C402FEF719F8BDE8C8
:103480001040FFF7C8BF70B51646044649B1D4F8DE
:10349000B80242691AB194F89C02032842D0032072
:1034A00070BDD4F89412002504F11400022932D121
:1034B000D0E902318B4206D95A1A82603146204641
:1034C000FFF73EFE0FE0994214D14068884211D3C5
:1034D000D4F8981288420DD2002211462046FFF7F8
:1034E0002FFEC4F8985200231A461946204600F0D1
:1034F000B5F810E0D4F8B802C16829B194F89C027C
:10350000032801D1204688478021204600F02AF96F
:103510002046FFF737FE94F8A002012806D184F870
:10352000A05203E0204690470028B9D1002070BD8A
:1035300010B51346044649B1D4F8B80282691AB1ED
:1035400094F89C02032824D0032010BDD4F89412D0
:1035500004F5AA70032920D1D0E9021291420AD9B8
:103560008A1A8260C068824200D302461946204609
:10357000FFF7DEFD11E0D4F8B802016929B194F833
:103580009C02032801D1204688472046FFF712FEFF
:1035900003E0204690470028D7D1002010BD00202E
:1035A000704710B5012180F89C12D0F8B82212B1F2
:1035B000526801799047002010BD000010B50178D5
:1035C00039BB15490222C1F80404C0F8C4124FF0F7
:1035D000A0400860042048600020C1E90320C1E940
:1035E000062008624862C86208630846FEF784FA4B
:1035F00008B1FDF79EF980210748FDF718FF40222A
:1036000000210548FDF717FF802201210248FDF740
:1036100012FF002010BD0000340600200A0601F051
:103620007F01D0F8C402C1EBC10100EB810002D5DB
:1036300090F83E00704790F8FE01704700207047F8
:103640000020704710B51C461346D0F8C40222462D
:10365000FDF782FFBDE81040FFF7DDBE10B5D0F8E2
:10366000C402FDF7A9FFBDE81040FFF7D4BE70B556
:103670000125044680F89C520020C4F89402606042
:10368000C4F8A402D4F8BC0228B1D4F8B8020021CE
:103690004268204690470022402311462046FFF70B
:1036A000D1FF4026A4F864513346002280212046F1
:1036B000C4F86061FFF7C6FFA5840020266270BDD4
:1036C00090F89C12042903D190F89D1280F89C1266
:1036D0000020704710B590F89C12032904D1D0F84F
:1036E000B812C96901B18847002010BD01740020DB
:1036F000704710B5D0F8C402FEF7D0FABDE810400C
:10370000FFF789BE70B5044600F2AA20054600F016
:103710004DF80120C4F89402B4F8B002C4F898023D
:1037200094F8AA0210F01F010AD001290ED0022934
:1037300012D000F080012046BDE8704000F012B8C1
:1037400029462046BDE8704000F0C2B82946204610
:10375000BDE8704000F0ECB929462046BDE8704055
:1037600000F040B910B5D0F8C402FDF749FFBDE83C
:103770001040FFF750BE10B5D0F8C402FEF7A9FA0A
:10378000BDE81040FFF747BE90F89C1280F89D12EC
:10379000042180F89C120020704710B5D0F8C402B4
:1037A000FDF768FFBDE81040FFF735BE70B5054670
:1037B00011F8010B2870087868704C1C2046FFF740
:1037C0004EF96880A41C2046FFF749F9A880A01C88
:1037D000FFF745F9E88070BD38B504460020ADF824
:1037E000000041B1C4F8B812896A68468847C4F835
:1037F000CC02002038BD032038BD02460320D2F899
:10380000B832002B02D01B681046184770470000E2
:103810002DE9F0410F462C4E897800250446317081
:10382000012906D939462046FFF792FC0320BDE85E
:10383000F08194F89C0202280CD003281DD0394650
:103840002046FFF785FC31782046FFF769FC032509
:103850002846ECE799B320466160FFF7CEFF0500EC
:1038600004D039462046FFF773FCF1E72046FFF706
:10387000A1FC032084F89C02EAE74FF00208C1B1E2
:10388000606888421BD0C1B22046FFF749FC3178FE
:1038900020466160FFF7B1FF050010D03946204691
:1038A000FFF756FC21792046FFF73AFC84F89C820A
:1038B000CEE784F89C8220466160FFF731FC204609
:1038C000FFF778FCC4E70000F0000020FFF753BFCB
:1038D0002DE9F0410A78002512F0600208D0202A74
:1038E00001D0402A71D1D0F8B8229268904731E0D7
:1038F0004B78002201260A2B67D2DFE803F0415EF5
:103900006658660805662D29FFF7EEFC5FE0044661
:103910008888D8B9C888C8B94888802816D200F0E5
:103920007F0794F89C02032810D084F89E723946D1
:103930002046FFF7DEFE2046FFF73CFC1FB10220C9
:1039400084F89C0243E084F89C6240E020463CE01E
:10395000FFF75EFF05463AE0CB88012B35D190F8A2
:103960009C32012B04D0022B02D0032B2DD104E07A
:103970008260012200F1080116E00122011D13E01E
:1039800090F89C22012A03D0022A01D0032A1CD1DC
:10399000CA88022A19D1C660D0F8A41209B103213D
:1039A000C160022200F10C01FFF7F7FB0FE049882C
:1039B00001290CD1C0F8A46211E090F89C32012BCF
:1039C00008D0022B06D0032B04D0FFF7C1FB2846FA
:1039D000BDE8F08149880129F9D1C0F8A422FFF798
:1039E000E9FBF4E72DE9F0410D460446287800276D
:1039F000097910F060000BD0202801D0402873D145
:103A0000D4F8B802294682682046904707468CE0E1
:103A10006878D8B3012822D0032865D194F89C0295
:103A2000022802D003287CD10BE0002979D080291C
:103A300077D02046FFF796FE80212046FFF792FEC2
:103A400073E0688838B931B1802904D0E88810B9AA
:103A50002046FFF787FE2046FFF7ACFB65E094F8B1
:103A60009C020228E1D003285BD16888D8BB4806B5
:103A700002D02046FFF7F5FC2046FFF79BFBD4F869
:103A8000B80229468268204690474EE0FFE794F846
:103A90009C020026022802D0032842D111E009B17D
:103AA00080293ED1080601F07F0000EB800004EB86
:103AB000800101D5143101E001F5AA7102220E60E6
:103AC0002BE0080601F00F0000EB800004EB800003
:103AD0000BD5808C40B101F07F0000EB800004EB3F
:103AE000800514350CE020E01BE0B0F86401C0B1A3
:103AF00001F07F0000EB800004EB800505F5AA755E
:103B000041B1802906D02046FFF788FD10B1012081
:103B1000286000E02E60022229462046FFF73DFB88
:103B200003E029462046FFF713FB3846BDE8F08145
:103B300070B50646087800240D4610F0600003D0EA
:103B4000202801D0402817D196F89C02012803D0E4
:103B5000022801D003280FD1287901280CD8D6F8E3
:103B6000B8028268304690470446E888204306D170
:103B70003046FFF71FFB02E03046FFF7E9FA204628
:103B800070BD000070B50A78012302F00F054E7871
:103B9000AB401B4CD0F81C58012E17D045EA03430C
:103BA000C0F81C3800EB4210D0F8002B12040BD4E4
:103BB000D0F8002B0B89C978C3F30A031A4344EAEF
:103BC00081410A43C0F8002B002070BD9BB21D4309
:103BD000C0F81C5800EB4210D0F800391B04F3D495
:103BE000D0F800390D89C978C5F30A0589042B433B
:103BF00041EA82510B432343C0F80039E4E7000057
:103C000000800010D0F800196FF30A01C0F8001905
:103C1000D0F8041841F48071C0F8041800207047EF
:103C200070B5044606990A9E049D0D98012916D088
:103C3000E06840F04000E060204600F02BF8A16B07
:103C40001EB321F48031A163012D07D1A16841F099
:103C50000601A160A16841F02001A16070BDA16BC7
:103C600021F48031A163E168094A1140E160E16813
:103C700021F44011E160012803D1E06840F4801094
:103C8000E060204600F006F8DEE741F48031DAE734
:103C9000BFFFBDFF01220C4902E0521C8A420BD833
:103CA0000369002BF9DA026942F001020261012284
:103CB00004E0521C8A4201D9032070470369DB07E4
:103CC000F7D1002070470000400D030030B54C785C
:103CD0000A78012300EB4212012C2CD0D2F8004BC1
:103CE000002C0BDAD2F8004B44F00064C2F8004B11
:103CF000D2F8004B44F08044C2F8004BD0F83C5856
:103D00000C7804F00F0403FA04F425EA0444C0F824
:103D10003C48D0F81C48097801F00F018B4024EA98
:103D20000341C0F81C18D2F8000B19490840C2F82A
:103D3000000B002030BDD2F80049002C0BDAD2F87D
:103D4000004944F00064C2F80049D2F8004944F048
:103D50008044C2F80049D0F83C480D7805F00F05C2
:103D600003FA05F5ADB2AC43C0F83C48D0F81C48A6
:103D7000097801F00F018B4099B28C43C0F81C48C0
:103D8000D2F8000903490840C2F80009D1E7000051
:103D90000078F3EF007833EC10B5D0F8041821F078
:103DA0000201C0F804180320FDF7A8F9002010BD97
:103DB00010B5D0F8041841F00201C0F8041803202F
:103DC000FDF79CF9002010BD2DE9F04F00250E46AF
:103DD0000446DDF82CC0DDF824B0109F28462946A3
:103DE00004EB8002C2F80411401C0F28F8D32046CF
:103DF000C7B1806B20F40012A263A06B40F40022D4
:103E0000A26308468846C4F8000ED4F8001820467D
:103E1000C4F80018BCF1010F16D0D0F8001841F01A
:103E2000030116E0D0F8040840F00202C4F80428A8
:103E3000A06B40F40012A263A06B20F40022A263E6
:103E4000A06B20F48022DBE7D0F800180BB141F022
:103E50000101C0F80018102100F090FA00B101250E
:103E6000204600F07BFA00B101254046C4F81088D6
:103E7000C4F81488C4F81C8800214FF000694FF082
:103E8000904A4FF67F3314E004EB4112D2F800C998
:103E9000BCF1000F06DA11B1C2F800A904E0C4F8C1
:103EA000009901E0C2F80009C2F81009C2F8083907
:103EB000491C8E42E8D8002115E000BF04EB4112F6
:103EC000D2F800CBBCF1000F06DA11B1C2F800AB9A
:103ED00004E0C4F8009B01E0C2F8000BC2F8100B2C
:103EE000C2F8083B491C8E42E8D8D4F8101821F4D7
:103EF0008072C4F81028A0616FF080406061BBF14F
:103F0000000F03D1A06940F01000A061A069094929
:103F10000843A0610C9818B1A06940F00800A061A6
:103F2000012F03D1A06904490843A0612846BDE8D8
:103F3000F08F000000383C8004000040816821F0D0
:103F4000010181600020704770B50D784E78434CB8
:103F5000EBB200EB4313012E1FD0D3F8100B6FF31D
:103F60001200C3F8100BD3F8100B2040C3F8100B4D
:103F7000486908B188684861D3F8100B40F4002004
:103F8000C3F8100BD3F8100B8C68C4F31204204351
:103F9000C3F8100B012A55D058E04E69002ED3F813
:103FA000106932D06FF31206C3F81069D3F81069A4
:103FB0002640C3F810694E698C68A64200D94C614E
:103FC000D3F8104944F40024C3F81049D3F8104939
:103FD0004E69C6F312063443C3F81049012A22D0B1
:103FE00000EB4512D2F8003943F00443C2F800391F
:103FF0004A6932B3D0F83428097801F00F0301215F
:1040000099400A43C0F8342826E02640C3F81069D6
:10401000D3F8104944F40024C3F81049D3F81049E8
:104020006FF31204D8E7096919B100EB4512C2F821
:10403000141900EB4510D0F8001941F00441C0F804
:10404000001909E0C86808B1C3F8140BD3F8000BD5
:1040500040F00440C3F8000B002070BDFFFF07E0F4
:1040600010B5036C134CA34203D9D0F8003B002BCE
:104070001EDB0023C0F8103BD0F8103B43F40023B4
:10408000C0F8103BD0F8103B43F01803C0F8103BC9
:10409000D0F8103B43F0C043C0F8103B012907D1D2
:1040A000C0F8142BD0F8001B41F08021C0F8001B91
:1040B000002010BD0A30544F4A780B78012A00EBDB
:1040C00043100BD0D0F8002B22F40012C0F8002BC4
:1040D000C978032914D0022912D017E0D0F800299A
:1040E00022F40012C0F80029C978032901D002295E
:1040F0000CD1D0F8001941F08051C0F8001905E04A
:10410000D0F8001B41F08051C0F8001B0020704720
:104110000A784B78D1B200EB4110012B12D0D0F8C5
:10412000001B002906DB2AB1D0F8001B21F08041DA
:10413000C0F8001BD0F8001B41F40011C0F8001BB0
:1041400000207047D0F80019002906DB2AB1D0F80A
:10415000001921F08041C0F80019D0F8001941F48D
:104160000011C0F80019EBE7F8B50C784F78774DDF
:10417000E3B26FF0604600EB4313012F26D0D3F873
:10418000104B6FF31204C3F8104BD3F8104B2C40B4
:10419000C3F8104B4C69002C74D08D682C44641EFD
:1041A000B4FBF5F4D3F8105BA4B206EAC446354379
:1041B000C3F8105BD3F8105B8E686643C6F3120435
:1041C0002543C3F8105B012A71D0A6E04F691FB3E5
:1041D000D3F810796FF31207C3F81079D3F8107978
:1041E0002F40C3F810794F698D682F447F1EB7FBAD
:1041F000F5F506EAC545D3F810693543C3F81059FB
:10420000D3F810594E69C6F312063543C3F8105956
:10421000CD78012D10D01BE0D3F810692E40C3F8E3
:104220001069D3F8105945F40025C3F81059D3F894
:1042300010596FF3120509E0D3F8105925F0C04565
:10424000C3F81059D3F8105945F00055C3F8105968
:10425000012A18D000EB4413D3F8004944F0044479
:10426000C3F80049CC78012C2FD04A6962B3D0F84A
:104270003428097801F00F03012199400A43C0F85E
:10428000342860E036E00A691AB100EB4413C3F841
:104290001429C97801290FD1D0F80818C90500EBF5
:1042A0004411D1F8002903D442F0005202E030E07A
:1042B00042F08052C1F8002900EB4410D0F80019F8
:1042C00041F00441C0F800193DE0D0F80848E40589
:1042D000D3F8004902D444F0005401E044F0805483
:1042E000C3F8004900928A8A93B20A78C96800F03C
:1042F00005FA28E0D3F8104B8D68C5F312052C435E
:10430000C3F8104BD3F8104B44F40024C3F8104BFF
:1043100059E7CA680AB1C3F8142BC97801290CD12E
:10432000D0F80808C005D3F8000B02D440F00050C4
:1043300001E040F08050C3F8000BD3F8000B40F0D0
:104340000440C3F8000B0020F8BD0000FFFF07E0A9
:10435000816841F001018160002070470021102236
:104360000261054A491C914201D903207047036943
:10437000DB06F7D400207047400D03000022202305
:1043800043EA811101610549521C8A4201D9032087
:10439000704703699B06F7D400207047400D030067
:1043A000D0F8080810F0060004D0022803D0062830
:1043B00001D00F20704702207047406900F00100D3
:1043C0007047000030B555482C222DED048B87B086
:1043D000D0F8BC125248FBF724FF514C4021514801
:1043E000227DFCF77EFF504D627D08212846FCF7B8
:1043F00078FFA27D20212846FCF773FFE27D802113
:104400002846FCF76EFF227E69152846FCF769FFF7
:10441000464D627E02212846FCF763FFA27E0821FA
:104420002846FCF75EFFE27E20212846FCF759FF74
:1044300094ED070A9FED3E9A20EE090A10EE100A4D
:10444000FCF71AF89FED3B8B53EC182BFBF77FFF23
:10445000FBF7F9FF0346002201213848FCF798FCDE
:1044600001213648FCF7A1FC94ED080A20EE090A68
:1044700010EE100AFCF700F853EC182BFBF767FF5F
:10448000FBF7E1FF0346002202212C48FCF780FCE9
:1044900002212A48FCF789FC00212948FEF754F83C
:1044A00000212848FEF750F81C216846FBF7D2FE91
:1044B00060200090002002900490A08C2249642586
:1044C000B1FBF0F01E49401E0022C860218D401C47
:1044D0004843B0FBF5F0019069461948FDF774FFB9
:1044E000E08C1A490022B1FBF0F01649401EC8606A
:1044F000618D401C4843B0FBF5F0019069461148BE
:10450000FDF762FF00210E48FDF7FCFF00210D487A
:10451000FDF7F8FF07B0BDEC048B30BD640300204D
:1045200038030020000C024000040240001002404A
:10453000000080456666666666660A4018020020CE
:104540002C0200206C020020007A030A00BD010545
:10455000D0F81818D0F81C08084080B27047D0F87E
:104560001818D0F81C080840000C704710B5D0F897
:104570001038D0F8342801F00F0400EB4110E2406D
:1045800002F00102D0F8080943EAC212104010BD3F
:1045900000EB4111D1F8081BD0F81408084070470F
:1045A0004169806908407047D21C10B59308002209
:1045B00000F5805002E00468521C10C19A42FAD300
:1045C000084610BD10B5C26822F0C042C260012981
:1045D00002D029B1012010BDC16841F0005102E0B4
:1045E000C16841F08041C1603220FCF787FD0020A6
:1045F00010BDD0F8002822F4FE62C0F80028D0F8E0
:1046000000284FF4FE6303EA01110A43C0F80028B2
:1046100000207047022A3ED1264A274B0A449A427C
:1046200001D20F2138E0254A254B0A449A4201D293
:104630000E2131E0234A244B0A449A4201D20D2133
:104640002AE0224A224B0A449A4201D20C2123E05A
:10465000204A214B0A449A4201D20B211CE01F4AF6
:104660001F4B0A449A4201D20A2115E01D4A1E4BF3
:104670000A449A420FD31D4A1D4B0A449A4201D262
:10468000082109E01B4A11441B4A914201D207212B
:1046900002E0062100E00921C26822F47052C260E3
:1046A000C2684FF4705303EA81210A43C2600020BC
:1046B00070470000405327FF00350C00401E1BFFD1
:1046C00040420F0000DC0BFF804F1200808CF9FE8F
:1046D00020D6130060B6E5FE60E3160000D3CEFEE0
:1046E00040771B00C05BB3FEC091210000CA91FE61
:1046F00020753800E05459FEE09C410010B5029C42
:1047000064B9DB1C9C0800EB0230002300F58050EC
:1047100002E004C902605B1CA342FAD3002010BD72
:10472000FEE70907090E002804DB00F1E02080F80D
:104730000014704700F00F0000F1E02080F8141D15
:10474000704702E008C8121F08C1002AFAD170475A
:104750007047002001E001C1121F002AFBD1704701
:1047600010B5002821D0114B0022001F196803E06A
:10477000814203D80A4649680029F9D152B1136829
:10478000841A9C4204D1006818441060104602E06C
:10479000506000E0186039B102680B1A934203D1EF
:1047A0000B681A4402604968416010BDC8010020CE
:1047B0008AB0FCF7A9FDFEF7FDF9FDF753FF5A4853
:1047C0000024016841F4800101600068224600F481
:1047D0008000079021463820FCF7F6FD3820FCF7D2
:1047E000E5FDFEF751F8FDF7FBFE514907944F48F0
:1047F000089408600846FCF786FA0794002207A987
:104800004B480894FCF75EFA102207A94848FCF7C9
:1048100059FAFDF7C3FFFEF707F846492C2000229E
:104820000860486040214448FCF75BFD434D00228E
:1048300008212846FCF755FD002220212846FCF7D8
:1048400050FD002280212846FCF74BFD002269150F
:104850002846FCF746FD3A4D002202212846FCF787
:1048600040FD002208212846FCF73BFD00222021C4
:104870002846FCF736FD40F2D943002201212C489E
:10488000FCF786FA01212A48FCF78FFA40F6AA23A2
:10489000002202212648FCF77BFA02212448FCF77B
:1048A00084FA234800211430FDF74EFE20480021F1
:1048B0005430FDF749FE1C216846FBF7CBFC1C4930
:1048C0006020009014310294049444F29F10C86058
:1048D0001C486424B0FBF4F001901548002269469E
:1048E0001430FDF771FD124942F2CF00543100221D
:1048F000C86015486946B0FBF4F001900C4854308C
:10490000FDF762FD0A4800211430FDF7FBFD084861
:1049100000215430FDF7F6FD064905480422083110
:104920004838FCF737F9FEE73038024000740040A1
:104930001802002000000020000C02400004024089
:104940000010024040D10C0000410A00F0B50B30CD
:10495000154D20F007010024144A0FE003688B4234
:104960000BD38B4205D95E1A43184768C3E9006729
:1049700000E04368136002C004E0021D10680028D4
:10498000ECD12046002802D1286808B10020F0BDF3
:10499000064A07481060074A121A22F00702C0E9C7
:1049A000002401202860D7E7CC010020C8010020A6
:1049B000440C0020400E00200006101600061016C1
:1049C00000000000000000000102030406070809BF
:1049D000F049000800000020D00100006006000837
:1049E000C44A0008D001002070100000524700089F
:1049F00001101012545249454E4C4F4E4754494EE7
:104A00004830303014021D1813F53114082D321BB4
:104A10000839041A71041AB1041ACD141A010817BE
:104A200004030904120132021640470ED78C2602F5
:104A300001020301031A1A031206100BFF0901A158
:104A40000119012940151326FF2F75089540810291
:104A50000F290A041F9102C02290142073081B081A
:104A60006F041A7704196F1182105324F4137D2FE9
:104A70001C08ED2EB4123042081A2B101AC1101A5D
:104A8000CF04C11A65181A59041A71041A4D041476
:104A900009022913010125C03209042A02C515099A
:104AA000211101140122401607058103402D05073D
:104AB000050107291A09562C691A31130A06320210
:044AC0002A40E48123
:040000050800018965
:00000001FF
