:020000040800F2
:10000000D81100209D010008472000084F1D00085E
:10001000452000084D040008BD3B0008000000001A
:10002000000000000000000000000000C5210008E2
:100030006104000800000000C3210008D12100086D
:10004000B7010008B7010008B7010008B7010008B0
:10005000B7010008B7010008B7010008B7010008A0
:10006000B7010008B7010008B7010008B701000890
:10007000B7010008B7010008B7010008B701000880
:10008000B7010008B7010008B7010008B701000870
:10009000B7010008B7010008B7010008B701000860
:1000A000B7010008B7010008B7010008B701000850
:1000B000B7010008B7010008B7010008B701000840
:1000C000B7010008B7010008B7010008B701000830
:1000D000B7010008B7010008B7010008B701000820
:1000E000B7010008B7010008B7010008B701000810
:1000F000B7010008B7010008B7010008B701000800
:10010000B7010008B701000879220008B70100080C
:10011000B7010008B7010008B7010008B7010008DF
:10012000B7010008B7010008B7010008B7010008CF
:10013000B7010008B7010008B7010008B7010008BF
:10014000B7010008B7010008B701000849200008FE
:10015000B7010008B7010008B7010008B70100089F
:10016000B7010008B7010008B7010008B70100088F
:10017000B7010008B7010008B7010008000000003F
:10018000B7010008B7010008DFF80CD000F08CF8C8
:10019000004800474D3C0008D81100200648804721
:1001A00006480047FEE7FEE7FEE7FEE7FEE7FEE75C
:1001B000FEE7FEE7FEE7FEE75D2200088901000892
:1001C0002DE9F05F0546002092469B46884606468C
:1001D000814640241BE0284641464746224600F01F
:1001E00053F853465A46C01A914110D31146184647
:1001F000224600F03AF82D1A67EB01084F462246D6
:100200000120002100F031F817EB00094E41201EBB
:10021000A4F10104DFDC484631462A464346BDE8E6
:10022000F09F40EA01039B0703D009E008C9121FB1
:1002300008C0042AFAD203E011F8013B00F8013BA0
:10024000521EF9D27047D2B201E000F8012B491ECC
:10025000FBD270470022F6E710B513460A46044663
:100260001946FFF7F0FF204610BD202A04DB203A94
:1002700000FA02F1002070479140C2F1200320FAF9
:1002800003F3194390407047202A04DB203A21FAF7
:1002900002F00021704721FA02F3D040C2F120029F
:1002A0009140084319467047064C074D06E0E06848
:1002B00040F0010394E8070098471034AC42F6D3AD
:1002C000FFF766FF5C3D00087C3D000870B58C18A8
:1002D00010F8015B15F0070301D110F8013B2A115A
:1002E00006D110F8012B03E010F8016B01F8016B47
:1002F0005B1EF9D12B0705D40023521E0DD401F843
:10030000013BFAE710F8013BCB1A921C03E013F80B
:10031000015B01F8015B521EF9D5A142D8D3002040
:1003200070BD0000464910B54A6822F440324A6068
:100330004A6843681A434A6001684A6822F4807236
:100340004A6001684A68036942EA03224A60016818
:100350004A6822F040724A6001684A6883681A431A
:100360004A6001688A6822F400628A6001688A68CB
:10037000C3681A438A60816A6FF07062D142016873
:100380008A6822F070628A6001688A680CD0836A89
:100390001A438A6001688A6822F040528A600168C4
:1003A0008A68C36A1A4301E022F040528A600168F9
:1003B0008A6822F002028A6001688A68037E42EA43
:1003C00043028A6090F82010002901684A680FD023
:1003D00042F400624A6001684A6822F460424A605E
:1003E00001684A68174C436A04EB43331A4301E03F
:1003F00022F400624A600168CA6A22F47002CA628A
:100400000168CA6A838B104C04EB03531A43CA6217
:1004100001688A6822F400728A6001688A6890F82C
:10042000303042EA43228A6001688A6822F480629E
:100430008A6001688A68406942EA8020886010BD4D
:100440000023014000E0FFFF0000F0FFFEE7002076
:1004500070470020704710B503F0BCFA002010BDB3
:100460007047704778B50024009490F83C20012A2A
:1004700019D0012280F83C200A6807230568092A60
:1004800013D9EE680A3A02EB420293409E43EE60B3
:100490000B788A680A3B03EB43039A400368DD68E4
:1004A0002A43DA6010E0022078BD2E6902EB420296
:1004B00093409E432E610B788A6803EB43039A4076
:1004C00003681D692A431A614A681F23072A13D249
:1004D00005686E6B521E02EB820293409E436E6370
:1004E0000B790A885B1E92B203EB83039A40036880
:1004F0005D6B2A435A6327E005680D2A12D22E6BE2
:10050000D21F02EB820293409E432E630B790A882E
:10051000DB1F92B203EB83039A4003681D6B2A43EF
:100520001A6311E0EE6A0D3A02EB820293409E4399
:10053000EE620B790A880D3B92B203EB83039A407B
:100540000368DD6A2A43DA62164B0568144A9D4245
:1005500006D10D68122D03D1556845F4800555600C
:1005600005689D4218D10B68102B01D0112B13D1B7
:10057000536843F400035360096810290CD10A49F9
:100580000A4A0968B1FBF2F101EB8101490000E080
:10059000491E00910029FBD180F83C40002078BD25
:1005A0000023014000200140CC00002040420F0009
:1005B00070B504004FF0000503D0206C002610B188
:1005C00007E0012070BD204600F01CF8666484F846
:1005D0003C60206CC00610D4206C20F4885040F0A1
:1005E000020020642046FFF79DFE6664206C20F028
:1005F000020040F00100206400E0012584F83C6026
:10060000284670BD30B587B0044614216846FFF710
:1006100021FE1949206888422CD11848002401681D
:1006200041F480710160006800F480700590134807
:100630001438016841F001010160016801F0010115
:100640000591016841F0020101600068032500F096
:10065000020005908A20CDE9000569460294084809
:1006600000F08AF80220CDE90005694602940548A9
:1006700000F082F807B030BD00200140443802404D
:10068000000002400004024070B54379012B1AD0EB
:10069000012646710223037105682C6840F6FE733B
:1006A00093409C43D1E900310B43934023432B609B
:1006B00001680B68C0249440A3430B6006710021BD
:1006C0004171084670BD022070BD70B5040003D0B2
:1006D0002079002510B105E0012070BD657120462C
:1006E00000F008F80220207125610120207100200F
:1006F00070BD000010B586B0044614216846FFF7AF
:10070000A9FD1149206888421CD1104800210268C7
:1007100042F000520260006800F0005005900B4863
:100720001038026842F001020260006800F0010027
:100730000590302000900320CDE90101694604486E
:1007400000F01AF806B010BD0074004040380240B6
:100750000000024070B5044600F0F0F80546601C49
:1007600002D004480078044400F0E8F8401BA0429E
:10077000FAD370BDC00000202DE9F84F00224FF0E1
:10078000010803254FF00F0E0B6808FA02F423400E
:10079000A3426ED14E68012E05D0022E03D0112E39
:1007A00001D0122E12D186684FEA420C05FA0CF7DE
:1007B000BE43CF6807FA0CF7374387604668A64305
:1007C0000C79C4F30014944034434460C668570065
:1007D00005FA07FC8C6826EA0C06BC403443C4606A
:1007E0004C68022C01D0122C13D1D40800EB8404E5
:1007F000A346D4F8209054074FEAD46A0EFA0AF6BA
:1008000029EA06090E6906FA0AF646EA0906CBF84D
:10081000206006680C7926EA0C0604F00304BC404C
:10082000344304604C68E40065D5364C266846F4D1
:1008300080462660246822F0030604F48044009475
:10084000314C3444A446D4F808489607370F0EFAC2
:1008500007F6B4432D4EB04201D1002624E02C4EC1
:10086000B04201D101261FE02A4EB04202D1022639
:100870001AE040E0284EB04201D1032614E0274E92
:10088000B04201D104260FE0254EB04201D1052629
:100890000AE0244EB04201D1062605E0224EB042C5
:1008A00001D1072600E00826BE402643CCF80868A0
:1008B0001E4E34684F689C43FF0300D51C433460D0
:1008C0001A4C241D26684F689E43BF0300D51E4363
:1008D0002660164E083634684F689C43FF0200D5E8
:1008E0001C433460114E0C3634684F689C43BF0281
:1008F00000D51C433460521C102AFFF445AFBDE8FC
:10090000F88F0000443802400030014000000240EF
:100910000004024000080240000C024000100240A7
:100920000014024000180240001C0240003C01403C
:100930000AB1816170470904FBE700000148806843
:1009400070470000C000002002488168027811440E
:1009500081607047C00000200B4810B5016841F469
:1009600000710160016841F480610160016841F437
:1009700080710160032000F06FF8002000F006F89D
:1009800000F024F8002010BD003C024070B50D4D71
:1009900004464FF47A712878B1FBF0F00A490968EF
:1009A000B1FBF0F000F074FF48B9102C07D2002220
:1009B0002146501E00F030F800206C6070BD012010
:1009C00070BD0000C0000020CC0000200A4808B51F
:1009D000016841F480410160006800F480400090AB
:1009E0000548001F016841F080510160006800F077
:1009F0008050009008BD000044380240002809DB08
:100A000000F01F02012191404009800000F1E02028
:100A1000C0F8001170470000F0B40E4B1B680C4684
:100A2000C3F30223C3F10705042D00D90425191DC2
:100A3000072901D2002300E0DB1E012606FA05F19A
:100A4000491E214099409E40761E16403143F0BC1D
:100A500003F0B5B80CED00E0064900F007020868A5
:100A60004FF6FF03184040EA0220034A1043086093
:100A7000704700000CED00E00000FA0570470068C8
:100A8000416200207047F0B50368586A39B19C6A2A
:100A90004FF4827600EB144400204D1E0AE040EA39
:100AA000024098620FE006EB8007DF59401C04EB20
:100AB0001744C0B2A842F6D344EA02404FF4807211
:100AC00002EB810158500020F0BDD0F8040402F080
:100AD0006EB8C1EBC10200EB8202D0F80404926C44
:100AE00001F0D9BFC1EBC10200EB8202D0F80404CF
:100AF000D2F8082202F024B8D0F8040402F059B861
:100B000070B504460B0601F00F00C0EBC00104EB0A
:100B100081014FF001024FF0000503D581F83D201F
:100B20003C3103E081F8FD5101F5FE71087094F845
:100B3000BC03012808D084F8BC23206802F0CEFB57
:100B400084F8BC53002070BD022070BD70B504460F
:100B500001F00F006268904201D9012070BD0B06C0
:100B600001F00F01C1EBC10104EB81014FF0010263
:100B70004FF0000503D581F83D203C3103E081F8BA
:100B8000FD5101F5FE718D70087094F8BC030128C9
:100B900008D084F8BC23206802F096FD84F8BC538A
:100BA000002070BD022070BD2DE9F04104460F0603
:100BB00001F00F00C0EBC00104EB81014FF0010612
:100BC0004FF0000503D581F83D603C3103E081F82A
:100BD000FD5101F5FE7108708A60CB704A7802B150
:100BE000C880022B00D10D7194F8BC03012809D0F4
:100BF00084F8BC63206802F0CDFA284684F8BC5320
:100C0000BDE8F0810220FBE770B50C4601F00F054E
:100C1000C5EBC50100EB8101C1F81032C1F8082213
:100C20000023C1F8143281F8FD3181F8FC510369C9
:100C300001F5FE71012B00D10A612207027C0068D8
:100C400003D002F099FD002070BD02F085FCFAE7A8
:100C500070B504460D4601F00F006168884201D965
:100C6000012070BD29064FF000064FF0010207D5A4
:100C7000C0EBC00104EB810181F83D203C3107E06D
:100C8000C5EBC50104EB810181F8FD6101F5FE7141
:100C90008A70087094F8BC03012807D084F8BC233C
:100CA000206802F03DFD280702D007E0022070BD59
:100CB000217C04F57172206802F0DAFC84F8BC63D0
:100CC000002070BD70B50C4601F00F05C5EBC501E5
:100CD00000EB81010B658A6400234B65012381F8D9
:100CE0003D3001F83C5F0369012B00D10A61220706
:100CF000027C006803D002F03FFD002070BD02F0CE
:100D00002BFCFAE72DE9FC5F05680446284602F053
:100D10005CFE00287ED1206802F090FE002879D089
:100D2000206802F08BFE800704D52168486900F036
:100D300002004861206802F081FEC10604F571706E
:100D4000009034D52068816921F0100181612F6AFB
:100D500007F00F00C0EBC00004EB8006C7F3434070
:100D600006F5FE76022802D0062811D01AE047F6D2
:100D7000F070074216D0C7F30A1217462846F168EA
:100D800002F060FEF0683844F060B069384408E072
:100D900008222846009902F055FEB069C7F30A11EF
:100DA0000844B0612068816941F0100181612068C8
:100DB00002F044FE00034FF0010A4FF0080B5BD530
:100DC0000026206802F019FE0746DFF8689351E01C
:100DD000F8074DD0F1B2206802F028FE8046C00727
:100DE00007D005EB4611C1F808AB3146204601F0AB
:100DF00031F95FEA087022D505EB4611C1F808BB4E
:100E00002068016C00EB46100191D0F8082B494591
:100E100007D900E08BE1110403D54FF40041C0F87D
:100E2000081B204600F076FA0198484507D920694A
:100E3000012804D120680121009A02F019FC5FEA20
:100E4000C86004D505EB46111020C1F8080B5FEA15
:100E5000886004D505EB46112020C1F8080B5FEA35
:100E6000884005D505EB46104FF40051C0F8081B2B
:100E70007F08761C002FABD1206802F0DFFD400315
:100E80004FF000095CD5206802F0B0FD074600264F
:100E900054E0F80750D0F1B2206802F0B5FD80466A
:100EA000C00723D006F00F020AFA02F0D5F8342862
:100EB0008243C5F8342805EB4610C0F808A920691C
:100EC00001280FD1C6EBC60004EB8000D0E9112148
:100ED0001144816436B9206D20B920680121009A3F
:100EE00002F0C6FBF1B22046FFF7F3FD5FEA08709F
:100EF00003D505EB4611C1F808B95FEAC86004D50F
:100F000005EB46111020C1F808095FEA486004D5D6
:100F100005EB46114020C1F808095FEA887004D546
:100F200005EB46110220C1F808095FEA086003D505
:100F30003146204601F0F4F87F08761C002FA8D136
:100F4000206802F07BFD002811DAD5F8040820F0B3
:100F50000100C5F8040894F8F403012829D02046BC
:100F600000F0BCF92068416901F00041416120684E
:100F700002F064FD00050BD5D5F80808C00702D0C3
:100F8000204600F0EFF92068416901F400614161F9
:100F9000206802F053FDC00468D5D5F8040820F09D
:100FA0000100C5F804081021206802F0EFFC0021C0
:100FB00027E084F8F49300212046FFF75FFDD1E796
:100FC00005EB41104FF67F32C0F80829D0F8003900
:100FD00023F40013C0F80039D0F8003943F000635F
:100FE000C0F80039C0F8082BD0F8002B22F400120A
:100FF000C0F8002BD0F8002B42F00062C0F8002BA4
:10100000491C60688842DBD8D5F81C0840F0011004
:10101000C5F81C08206B60B1D5F8840840F00B00BF
:10102000C5F88408D5F8440840F00B00C5F844081A
:101030000CE0D5F8141842F22B000143C5F814183F
:10104000D5F8100840F00B00C5F81008D5F80008D6
:1010500020F4FE60C5F80008217C2068009A02F0A8
:1010600007FB2068416901F480514161206802F06A
:10107000E5FC800415D5206802F0CCF8206802F069
:1010800097FCE06000F020FA0146227B206802F025
:101090000FFD204600F00CF92068416901F4005171
:1010A0004161206802F0CAFC000707D5204600F025
:1010B00019F92068416901F008014161206802F0D6
:1010C000BDFCC00208D50021204600F035F820689C
:1010D000416901F480114161206802F0AFFC800297
:1010E00008D50021204600F02BF82068416901F462
:1010F00000114161206802F0A1FC400007D52046A4
:10110000FFF7E3FC2068416901F0804141612068FC
:1011100002F094FC40070AD520684568680702D5AC
:101120002046FFF7E9FC2068416829434160BDE89B
:10113000FC9F00000A30544FD0F8040401F086BD33
:10114000D0F8040401F084BD2DE9F0418AB0040018
:1011500005D094F8BD032668002520B108E00120E1
:101160000AB0BDE8F08184F8BC53204600F05EF878
:10117000032084F8BD03F06BC00500D4256120680E
:1011800002F0E4F904F11001282288466846FFF7CE
:1011900048F894E80F0002F04BF80226C8BB002183
:1011A000206802F05DFC002001270EE0C0EBC001CA
:1011B00004EB810181F83D7001F83C0FC880CD70CF
:1011C0008D60CD60401CC0B24D6161688142EDD838
:1011D000002011E0C0EBC00104EB810181F8FD515A
:1011E00081F8FC0181F8FF51C1F80452C1F808529E
:1011F000401CC0B2C1F8105261688142EAD828226E
:1012000041466846FFF70DF894E80F0002F0E4F855
:1012100010B184F8BD63A2E784F8385084F8BD7338
:10122000206802F0CDF800209AE7000010B586B0E3
:10123000044614216846FFF70DF82068B0F1A04F6E
:101240002FD119480021026842F0010202600068B3
:1012500000F0010005904FF4C05000900220CDE94D
:101260000101032003900A20049069460F48FFF70C
:1012700083FA0D48001D016841F0800101600A48B1
:101280001430016841F4804101600068002200F4DC
:101290008040059011464320FFF7BEFB4320FFF737
:1012A000ADFB06B010BD0000303802400000024027
:1012B00070B50446C068012570B1022801D0FFF75F
:1012C000D0F82946D4F8040401F018FDD4F8040439
:1012D000BDE8704001F0D3BC0025F2E7D0F804046B
:1012E00001F0F6BCD0F8040401F0FCBC10B50446D3
:1012F00090F8BC0301280BD0012084F8BC0384F8CB
:101300003810206802F0C3FB002084F8BC0310BD35
:10131000022010BDD0F8042400F57171104601F0D0
:10132000F9BC10B50446006894F8BC13012906D036
:10133000012184F8BC13A16A012902D008E002202F
:1013400010BDA169012903D0816B41F48031816313
:10135000206802F029F8206802F002FB002084F8DF
:10136000BC0310BD10B50446D0F8040401F014FD10
:101370002068D0F8001E41F00101C0F8001E206A6C
:10138000002804D00248016841F00601016010BD48
:1013900010ED00E02DE9F0470E46050065D0DFF8BE
:1013A0001481D8F80000F7B200F00F00B04207D265
:1013B00088F80070D8F8000000F00F00B04254D157
:1013C00028683D4C810712D5400703D5206840F4BA
:1013D000E05020602878000703D5206840F4604082
:1013E00020602068A96820F0F00008432060287879
:1013F000C0072DD0304968680839012812D002286A
:1014000013D0032811D00968890700292DDA216833
:1014100021F0030101432160FFF790FA814641F278
:10142000883A0EE009688903EFE709688901ECE76B
:10143000FFF784FAA0EB0901514502D90320BDE86A
:10144000F0872068696800F00C00B0EB810FEFD1E5
:10145000D8F80010404601F00F01B14207D90770DB
:10146000006800F00F00B04201D00120E7E72878C3
:10147000400705D52068E96820F4E0500843206063
:101480002878000706D52068296920F4604040EAE2
:10149000C100206000F01EF82168084AC1F3031162
:1014A000515CC8400649086006480068FFF76EFABC
:1014B0000020C4E7003C0240083802404C3D0008D0
:1014C000CC000020C40000200148006870470000E4
:1014D000CC000020154810B5006810F00C0214482C
:1014E00013D04110042A0FD0082A0ED10F4C241F0C
:1014F0002268236802F03F025B0207D52068C0F330
:101500008810A0FB010106E0084610BD2168C1F368
:101510008811A1FB00010023FEF752FE2168C1F3F0
:101520000141491C4900B0FBF1F010BD08380240F0
:101530000024F4002DE9F84F04006ED02078DFF885
:101540003C93C007A9F104054AD009F104000168E1
:10155000C1F38101012908D00068C0F3810002288D
:101560000AD1D9F80000400206D52868800337D593
:1015700060680028E1D033E06068B0F5803F10D0AB
:10158000B0F5A02F286810D020F48030286028689B
:1015900020F4802028606068A8B1FFF7CFF90646E4
:1015A0000DE0286840F48030F4E740F480202860A3
:1015B000F7E700BFFFF7C2F9801B642873D82868DB
:1015C0008003F7D50CE0FFF7B9F9064605E000BF48
:1015D000FFF7B4F9801B6428F0D828688003F7D49B
:1015E0002078DFF89C8280074FF0000A3ED5A348A0
:1015F000001D016811F00C0F08D00068C0F38100D5
:1016000002280BD1D9F80000400207D428688007CF
:1016100016D5E068012800D112E02BE1E068B8B1EE
:101620000120C8F80000FFF789F9064605E000BF71
:10163000FFF784F9801B0228C0D828688007F7D5F7
:101640002868216920F0F80040EAC10028600DE018
:10165000C8F800A0FFF772F9064604E0FFF76EF93C
:10166000801B02281FD828688007F7D4207800073D
:1016700022D5824E83486169703671B101210160C3
:10168000FFF75CF9074604E0FFF758F9C01B022892
:1016900009D830688007F7D50EE0C0F800A0FFF742
:1016A0004DF9074605E082E0FFF748F9C01B022824
:1016B0007DD830688007F7D42078400768D5DFF8F8
:1016C000BCB100270BF13C0BDBF80000C0000BD4D1
:1016D000DBF8001041F08051CBF80010DBF800007F
:1016E000012700F080500090674E3068C00510D48C
:1016F000306840F480703060FFF720F9009005E01A
:10170000FFF71CF90099401A022850D83068C0052C
:10171000F6D55A4EA0686C3601280FD005283068DF
:1017200010D020F001003060306820F004003060FC
:10173000A068B8B1FFF702F900900FE0306840F000
:101740000100F4E740F004003060F7E7FFF7F6F837
:101750000099411A41F28830814266D8306880078A
:10176000F4D50EE0FFF7EAF8009007E0FFF7E6F89F
:101770000099411A41F28830814256D8306880077A
:10178000F4D42FB1DBF8001021F08051CBF8001019
:10179000A069C8B33949091D0968C1F3810102294B
:1017A0004AD00228504607D0C8F8600000E03CE06C
:1017B000FFF7C4F804463BE04746C8F86000FFF76F
:1017C000BDF8064605E000BFFFF7B8F8801B022809
:1017D0002BD828688001F7D4D4E907010843A16A0F
:1017E0002A4A490802EB0141626A41EA8211084330
:1017F00094F82C1040EA0161C9F800100120386605
:10180000FFF79CF8044606E036E000BFFFF796F8C5
:10181000001B022809D828688001F7D52CE000BFFA
:10182000FFF78CF8001B022802D90320BDE8F88FCF
:1018300028688001F4D41FE00128F7D0D9F800000F
:10184000E26900F48001914214D1226A00F03F0164
:1018500091420FD147F6C071626A0140914209D1AD
:10186000A26A00F44031914204D1E16A00F0706054
:10187000884201D00120D9E70020D7E70438024090
:1018800000004742800E4742007000400000FFFF0A
:1018900010B5401EB0F1807F01D3012010BD4FF084
:1018A000E02460610F21601702F089F90020A06137
:1018B00007202061002010BD7047704710B590F8D8
:1018C0003C20012A22D0012280F83C20CA688C6882
:1018D00022F4407222434C6822F4806222430C6856
:1018E00022F4006222430C6922F4805222434C69A4
:1018F00022F400522243C969002322F480420A43A1
:1019000001684A6480F83C30002010BD022010BD00
:1019100070B590F83C20012A32D0012480F83C4078
:10192000022280F83D2003685A689D6822F0700604
:101930000A6832435A60134B02689A4214D0B2F1DB
:10194000804F11D0104B9A420ED0104B9A420BD0C0
:101950000F4B9A4208D00F4B9A4205D00E4B9A4239
:1019600002D00E4B9A4204D1496825F080031943F6
:10197000916080F83D40002180F83C10084670BD21
:10198000022070BD0000014000040040000800403B
:10199000000C0040000401400040014000180040DD
:1019A000704770B50446006801694FF00005C943EF
:1019B000890715D4C168C943890711D4E91E01619B
:1019C00001202077206880698007204602D0FFF739
:1019D000E7FF04E000F0D6F8204600F0B5F92577DF
:1019E00020680169C943490717D4C168C943490739
:1019F00013D46FF004010161022020772068806910
:101A000010F4407F204602D0FFF7CAFF04E000F048
:101A1000B9F8204600F098F9257720680169C94394
:101A2000090716D4C168C943090712D46FF0080129
:101A30000161042020772068C0698007204602D019
:101A4000FFF7AEFF04E000F09DF8204600F07CF9BF
:101A5000257720680169C943C90617D4C168C943FD
:101A6000C90613D46FF010010161082020772068A7
:101A7000C06910F4407F204602D0FFF791FF04E0D8
:101A800000F080F8204600F05FF9257720680169B2
:101A9000C943C90708D1C168C943C90704D1891E10
:101AA0000161204600F051F920680169C943090627
:101AB00009D4C168C943090605D46FF080010161EA
:101AC0002046FFF7F9FE20680169C943490609D499
:101AD000C168C943490605D46FF040010161204641
:101AE00000F034F920680169C94389060BD4C16844
:101AF000C943890607D46FF0200101612046BDE883
:101B00007040FFF7DABE70BD30B587B004461421CF
:101B10006846FEF79FFB2468164D002216480223F4
:101B20000121AC4210D1046844F010040460006844
:101B300000F01000059048020090CDE90132CDE997
:101B4000032169460D4811E0B4F1804F10D10468BB
:101B500044F00104046000680091CDE9013200F016
:101B60000100CDE90410039269460548FEF704FE22
:101B700007B030BD00000140303802400010024084
:101B800000000240704770B50D46040003D094F881
:101B90003D0010B107E0012070BD002084F83C003A
:101BA000204600F015F8022084F83D00211D206831
:101BB00000F068FB2068016821F0080101602068DE
:101BC000016829430160012084F83D00002070BDB8
:101BD00008B500680B49884212D10B48016841F0F2
:101BE000080101600068002200F008000090114622
:101BF0003220FEF711FFBDE808403220FEF7FEBE9E
:101C000008BD0000000C00404038024070B504469A
:101C100090F83C000D4601280DD0012684F83C6068
:101C2000022084F83D0042B1042A18D0082A2AD0A4
:101C30000C2A4DD139E0022070BD206800F086FBEF
:101C40002068816941F0080181612068816921F083
:101C500004018161206881692A69114311E02068CB
:101C600000F0A4FB2068816941F400618161206873
:101C7000816921F480618161206881692A6941EA72
:101C80000221816124E0206800F0C6FB2068C16960
:101C900041F00801C1612068C16921F00401C161FE
:101CA0002068C1692A69114311E0206800F0E8FB4F
:101CB0002068C16941F40061C1612068C16921F4F3
:101CC0008061C1612068C1692A6941EA0221C1615C
:101CD00084F83D60002084F83C0070BD10B504001D
:101CE00003D094F83D0010B107E0012010BD0020A2
:101CF00084F83C00204600F00DF8022084F83D00F6
:101D0000211D206800F0BEFA012084F83D0000206B
:101D100010BD000008B500680949884201D1094892
:101D200004E0B0F1804F09D10648001F016841F07E
:101D300001010160006800F00100009008BD000092
:101D40000000014044380240704770477047FEE78A
:101D5000F0B500230A24302537261F4611E000BFC6
:101D6000B4EB107F02D905EB107C01E006EB107C90
:101D700001F813C001EB430C00015B1C8CF80170EF
:101D8000DBB29342ECD3F0BD7FB500241148009440
:101D9000019402940E49039401604FF48031C0E92C
:101DA00001140461047680F820400B49C0E90A144C
:101DB0000125C561C46080F830404561FEF7F8FB3D
:101DC0000095CDE9015469460248FEF74BFB7FBD03
:101DD00000200140B00100200100000F2DE9F04378
:101DE00087B014216846FEF735FA404800240168A0
:101DF00041F010010160016801F0100105910168D6
:101E000041F080010160016801F0800105910168E5
:101E100041F001010160016801F0010105910168D3
:101E200041F002010160016801F0020105910168C1
:101E300041F004010160016801F0040105910168AD
:101E400041F0080101600068294F00F0080005908A
:101E500000220A213846FEF76BFDDFF89880002249
:101E600050214046FEF764FDDFF88C904FF42A764F
:101E7000002231464846FEF75BFD0A20009001250E
:101E8000CDE90154694638460394FEF775FC4FF4DA
:101E90002860CDE90004694618480294FEF76CFCFE
:101EA0004FF42240CDE90004694615480294FEF73C
:101EB00063FC0520CDE90004694640460294FEF724
:101EC0005BFC50200090CDE90154694640460394E4
:101ED000FEF752FC0096CDE901546946484603944A
:101EE000FEF74AFC07B0BDE8F0830000303802403E
:101EF00000100240000C02400004024000080240B2
:101F00000000024010B592B000240F941C2108A8D4
:101F10001094FEF79FF920216846FEF79BF91B48B5
:101F20001949C0E9001441F2DF51C0E902410461DE
:101F300044618461FFF7D2FE0F940FA913481094F7
:101F4000FFF7E6FC602008904FF42F60CDE909040C
:101F50000B940C940D94002208A90C480E94FFF7E2
:101F600055FE00944FF40050CDE9044002940194D2
:101F70000394694605480794FFF7A0FC0348FFF760
:101F8000C3FD12B010BD0000000001400C02002093
:101F900010B58AB0002407941C2168460894FEF707
:101FA00059F912484FF08041C0E9001441F267012D
:101FB000C0E9024104618461FFF790FE079407A91C
:101FC0000A480894FFF7A4FC6020009040F6330014
:101FD000CDE901040022694604480494FFF716FE87
:101FE0000248FFF791FD0AB010BD00004C0200202E
:101FF00010B500220F49104800F021FD08B1FEF78E
:1020000030FA0E490C4800F0EFFE08B1FEF729FA4D
:102010000B49094800F0EDFA08B1FEF722FA06482C
:1020200000F05CFF002803D0BDE81040FEF719BAAD
:1020300010BD000020000020FC020020D400002081
:10204000B0000020FEE770470148FEF75BBE0000CD
:10205000CC0500202DE9F04103680D4604461E6CB6
:1020600003EB4511D1F8080BD4F810E04FF400470A
:102070004FF0200C04F57172BEF1010F09D0DFF8AA
:1020800098E0764539D1020432D500BFC1F8087B0B
:102090003FE0224B5FEA007E04D59E4239D900041E
:1020A000F4D436E05FEA806E02D5C1F808CB30E0A8
:1020B00010F0280F2DD19E4201D90004E6D4C5EBC3
:1020C000C50004EB8000D1F8101BD0F80432C1F336
:1020D0001201591AC0F81412D0F808121944C0F8A5
:1020E000081295B9D4F8100278B9012120680AE0E5
:1020F00080060AD5C1F808CB07E035B9D4F810023C
:1021000018B90021184601F0B3FAE9B22046FEF7EB
:10211000E9FC0020BDE8F0810A31544F0A30544FE9
:102120002DE9F84F0E46C1EBC60100EB8104814654
:102130000568D4E914103C34884202D90120BDE876
:10214000F88F081AA168814200D20846C01C87088F
:1021500005EB46181BE000BFA0EB010AA068504544
:1021600000D282460AF10300870899F81000009017
:102170001FFA8AF3F2B22846E16801F00DFDE1682A
:1021800001EB0A00E060A16901EB0A00A061D8F848
:10219000180980B2B84205D3D4E90501814201D2C1
:1021A0000028D9D1D4E90501884208D806F00F01EA
:1021B00001208840D5F834188143C5F83418002030
:1021C000BDE7704770470178407841EA00207047CA
:1021D000FEF7BABB30B593B030216846FEF73AF847
:1021E00014210CA8FEF736F81A480025016841F0C2
:1021F00080510160006800F080501190164801681D
:1022000041F4804101600068022400F48040119094
:1022100001200090000401908001CDE906400820D3
:1022200008904FF4A870CDE9090407200B90684688
:10223000FFF780F90CA90F2081E831004FF4A0507E
:102240000F90E002109005210CA8FFF7A3F813B03F
:1022500030BD000040380240007000400548016871
:1022600041F47001016003494FF00060803908605B
:102270007047000088ED00E00148FFF792BB0000C6
:102280008C020020F0B50268254C264D264E274FC3
:10229000274B4FF0804CA04209D0604507D0A842A0
:1022A00005D0B04203D0B84201D0984204D122F008
:1022B000700E4A6842EA0E02A0421BD0604519D057
:1022C000A84217D0B04215D0B84213D0984211D0CE
:1022D000184DA8420ED0184DA8420BD0174DA84259
:1022E00008D0174DA84205D0164DA84202D0164D71
:1022F000A84203D122F44075CA682A434D6922F0EE
:1023000080022A4302608A68C2620A688262A0422E
:1023100001D0984201D10969016301214161F0BDF9
:10232000000001400004004000080040000C004094
:1023300000040140004001400044014000480140C9
:1023400000180040001C004000200040F0B5026A68
:1023500022F001020262036A42688469124E24F08C
:1023600073050C682C4323F002058B682B430D4D3D
:10237000A84201D0B04205D123F00807CB683B4307
:1023800023F00403A84201D0B04205D14D6922F4E4
:10239000407215438A692A434260846149684163F7
:1023A0000362F0BD0000014000040140F0B5026A84
:1023B00022F010020262026A436884690D6824F404
:1023C000E64444EA05248D6822F0200242EA051220
:1023D0000F4D104EA84201D0B04206D1CF6822F076
:1023E000800242EA071222F04002A84201D0B04225
:1023F00007D14D6923F4406343EA85038D6943EABD
:10240000850343608461496881630262F0BD000016
:102410000000014000040140F0B5026A22F480721D
:102420000262026A4368C46922F4007224F07305F0
:102430000C68124E2C438D6842EA05220E4DA842CC
:1024400001D0B04206D1CF6822F4006242EA0722EE
:1024500022F48062A84201D0B04207D14D6923F432
:10246000405343EA05138D6943EA05134360C46191
:102470004968C1630262F0BD0000014000040140F0
:1024800030B5026A22F480520262046A4268C3696B
:102490000D6823F4E64343EA05238D6824F40054D1
:1024A00044EA0534084DA84202D0084DA84204D1A0
:1024B0004D6922F4804242EA85124260C361496854
:1024C0000164046230BD00000000014000040140CE
:1024D000D0F8BC02002180F850100846704710B5B3
:1024E000D0F8BC2242B1D0F8C00251781278C3684B
:1024F00010469847002010BD032010BD70B504465B
:10250000812100F0BFFA002525876587012120463B
:1025100000F0B8FAA4F87851A4F87A51D4F8BC02C3
:1025200048B1D4F8C00204F52F7480688047206851
:1025300001F064FB2560002070BD10B5D0F8BC42EE
:10254000E16C012908D1D0F8C00223786178C26813
:10255000184690470020E064002010BD0A21018049
:10256000004870479C0100202921018000487047E5
:102570000C0100202921018000487047380100200B
:102580002921018000487047640100202DE9F041B5
:102590000446542001F0A4FB05004FF0000624D0AF
:1025A0000520C4F8BC526087A4F87A0140230322B6
:1025B0008121204600F04EFB01272787402303227C
:1025C0003946204600F046FBA4F8787185F8506043
:1025D000D4F8C0024068804740232A4601212046A3
:1025E00000F044FB0020BDE8F0810220C4F8BC628A
:1025F000F9E719B1C0F8C0120020704703207047F6
:1026000010B51346D0F8BC2222B190F89C42032C9E
:1026100002D00DE0032010BD92F850400CB1012013
:1026200010BD012482F850400A46812100F0BDFB14
:10263000002010BD0A4610B501460248FFF7E0FF32
:1026400040B210BDFC020020F8B50022D0F8BC3228
:10265000ADF800200E781546144616F0600622D01C
:10266000202E5AD14A78921E0A2A56D2DFE802F06A
:1026700010085555555555140C05887818644FE0C9
:10268000012203F1400139E04888000A586447E01C
:10269000012203F1440131E00122DA64CA881946BB
:1026A00000F069F83CE04E78062E10D003DC3EB115
:1026B000012E32D134E00A2E23D00B2E2DD128E06A
:1026C00090F89C22032A28D10222694616E04B8802
:1026D0002226B6EB132F07D1CA88402A00D9402200
:1026E000D0F8C0120D6808E02126B6EB132F04D1F4
:1026F000CA880E4D092A00D90922294600F055F84A
:102700000EE090F89C22032A07D1012203F1480130
:10271000F4E790F89C22032A04D000F021F8032467
:102720002046F8BD88789864FAE700009001002000
:1027300010B5D0F8B8220AB152689047002010BDF9
:10274000134610B50A46002100F090FA002010BD93
:10275000134610B50A46002100F027FB002010BDEB
:1027600010B50446802100F005FB2046BDE810406E
:10277000002100F0FFBA10B50323C0F85821C0F8BB
:102780009432C0F85C2113460A46002100F06EFA2C
:10279000002010BD10B505210023C0F894121A4680
:1027A000194600F063FA002010BD10B502238261C3
:1027B000C0F89432C26113460A46002100F0F5FACF
:1027C000002010BD10B504210023C0F894121A4651
:1027D000194600F0EAFA002010BD000010B50A46C4
:1027E000024903A000F0FBF8004810BDD409002006
:1027F000437573746F6D2048494420436F6E66695A
:102800006700000012200880004870474000002048
:1028100010B50A46024903A000F0E1F8004810BDD7
:10282000D4090020437573746F6D204849442049D2
:102830006E746572666163650000000004200880A4
:10284000004870473C00002010B50A46024903A02A
:1028500000F0C5F8004810BDD40900204175746F20
:102860006D6174696F6E20616E6420436F6E747267
:102870006F6C204465706172746D656E7400000049
:1028800010B50A46024903A000F0A9F8004810BD9F
:10289000D409002050432D6261736564206D656129
:1028A000737572656D656E7420616E6420636F6E02
:1028B00074726F6C2070726F6A6563740000000040
:1028C00010B51A2008800A480168001D0468001D20
:1028D0000068081809D008220649FFF739FA0549A7
:1028E000042210312046FFF733FA0248801E10BD43
:1028F000107AFF1F56000020F8B504460020ADF8FE
:10290000000048880D46010A08295FD2DFE801F07F
:102910005E0409175E5E3C45D4F8B412207C0A6858
:1029200019E0207C02260028D4F8B80205D0C16A3C
:10293000684688470146467039E0816AF8E7C0B2C8
:10294000062843D2DFE800F0030A1014181CD4F85C
:10295000B402426805E0694690471CE0D4F8B4022E
:10296000826892B3207CF6E7D4F8B402C268F8E734
:10297000D4F8B4020269F4E7D4F8B4024269F0E78B
:10298000D4F8B4028269ECE7207CF0B9D4F8B8023C
:10299000416B68468847014609E0207CA8B9D4F815
:1029A000B802016B68468847014607204870EA88EC
:1029B0008AB1BDF8000040B1824200D90246ADF8AC
:1029C00000202046FFF7F1FEF8BDFFE7294620462C
:1029D000FFF7C6FEF8E72046FFF7F4FEF4E770B510
:1029E000002300281ED00025044602E06D1CEDB235
:1029F000641C2678002EF9D1022404EB45041480CF
:102A00001278CA545B1C0322CA5400245B1C06E0E3
:102A1000CA545B1CDAB28C54521CD3B2401C0278EC
:102A2000002AF5D170BD01004FF0000004D001294B
:102A300001D0022901D0032070470120704730B433
:102A4000A0B1D0F8B84200230CB1C0F8B832D0F829
:102A5000CC420CB1C0F8CC3209B1C0F8B41201219B
:102A600080F89C12027030BC00F0B0B830BC03207B
:102A7000704710B5D0F8C402FEF768F8BDE8104002
:102A8000FFF7D1BF10B5D0F8C402FEF739F8BDE8A2
:102A90001040FFF7C8BF70B51646044649B1D4F8D8
:102AA000B80242691AB194F89C02032842D003206C
:102AB00070BDD4F89412002504F11400022932D11B
:102AC000D0E902318B4206D95A1A8260314620463B
:102AD000FFF73EFE0FE0994214D14068884211D3BF
:102AE000D4F8981288420DD2002211462046FFF7F2
:102AF0002FFEC4F8985200231A461946204600F0CB
:102B0000B5F810E0D4F8B802C16829B194F89C0275
:102B1000032801D1204688478021204600F02AF969
:102B20002046FFF737FE94F8A002012806D184F86A
:102B3000A05203E0204690470028B9D1002070BD84
:102B400010B51346044649B1D4F8B80282691AB1E7
:102B500094F89C02032824D0032010BDD4F89412CA
:102B600004F5AA70032920D1D0E9021291420AD9B2
:102B70008A1A8260C068824200D302461946204603
:102B8000FFF7DEFD11E0D4F8B802016929B194F82D
:102B90009C02032801D1204688472046FFF712FEF9
:102BA00003E0204690470028D7D1002010BD002028
:102BB000704710B5012180F89C12D0F8B82212B1EC
:102BC000526801799047002010BD000010B50178CF
:102BD00039BB15490222C1F80404C0F8C4124FF0F1
:102BE000A0400860042048600020C1E90320C1E93A
:102BF000062008624862C86208630846FEF7A4FA25
:102C000008B1FDF72EFC80210748FDF738FF402270
:102C100000210548FDF737FF802201210248FDF71A
:102C200032FF002010BD0000CC0500200A0601F094
:102C30007F01D0F8C402C1EBC10100EB810002D5D5
:102C400090F83E00704790F8FE01704700207047F2
:102C50000020704710B51C461346D0F8C402224627
:102C6000FDF7A2FFBDE81040FFF7DDBE10B5D0F8BC
:102C7000C402FDF7C9FFBDE81040FFF7D4BE70B530
:102C80000125044680F89C520020C4F8940260603C
:102C9000C4F8A402D4F8BC0228B1D4F8B8020021C8
:102CA0004268204690470022402311462046FFF705
:102CB000D1FF4026A4F864513346002280212046EB
:102CC000C4F86061FFF7C6FFA5840020266270BDCE
:102CD00090F89C12042903D190F89D1280F89C1260
:102CE0000020704710B590F89C12032904D1D0F849
:102CF000B812C96901B18847002010BD01740020D5
:102D0000704710B5D0F8C402FEF7F0FABDE81040E5
:102D1000FFF789BE70B5044600F2AA20054600F010
:102D20004DF80120C4F89402B4F8B002C4F8980237
:102D300094F8AA0210F01F010AD001290ED002292E
:102D400012D000F080012046BDE8704000F012B8BB
:102D500029462046BDE8704000F0C2B8294620460A
:102D6000BDE8704000F0ECB929462046BDE870404F
:102D700000F040B910B5D0F8C402FDF769FFBDE816
:102D80001040FFF750BE10B5D0F8C402FEF7C9FAE4
:102D9000BDE81040FFF747BE90F89C1280F89D12E6
:102DA000042180F89C120020704710B5D0F8C402AE
:102DB000FDF788FFBDE81040FFF735BE70B505464A
:102DC00011F8010B2870087868704C1C2046FFF73A
:102DD000FAF96880A41C2046FFF7F5F9A880A01C2A
:102DE000FFF7F1F9E88070BD38B504460020ADF872
:102DF000000041B1C4F8B812896A68468847C4F82F
:102E0000CC02002038BD032038BD02460320D2F892
:102E1000B832002B02D01B681046184770470000DC
:102E20002DE9F0410F462C4E89780025044631707B
:102E3000012906D939462046FFF792FC0320BDE858
:102E4000F08194F89C0202280CD003281DD039464A
:102E50002046FFF785FC31782046FFF769FC032503
:102E60002846ECE799B320466160FFF7CEFF0500E6
:102E700004D039462046FFF773FCF1E72046FFF700
:102E8000A1FC032084F89C02EAE74FF00208C1B1DC
:102E9000606888421BD0C1B22046FFF749FC3178F8
:102EA00020466160FFF7B1FF050010D0394620468B
:102EB000FFF756FC21792046FFF73AFC84F89C8204
:102EC000CEE784F89C8220466160FFF731FC204603
:102ED000FFF778FCC4E70000D0000020FFF753BFE5
:102EE0002DE9F0410A78002512F0600208D0202A6E
:102EF00001D0402A71D1D0F8B8229268904731E0D1
:102F00004B78002201260A2B67D2DFE803F0415EEE
:102F10006658660805662D29FFF7EEFC5FE004465B
:102F20008888D8B9C888C8B94888802816D200F0DF
:102F30007F0794F89C02032810D084F89E723946CB
:102F40002046FFF7DEFE2046FFF73CFC1FB10220C3
:102F500084F89C0243E084F89C6240E020463CE018
:102F6000FFF75EFF05463AE0CB88012B35D190F89C
:102F70009C32012B04D0022B02D0032B2DD104E074
:102F80008260012200F1080116E00122011D13E018
:102F900090F89C22012A03D0022A01D0032A1CD1D6
:102FA000CA88022A19D1C660D0F8A41209B1032137
:102FB000C160022200F10C01FFF7F7FB0FE0498826
:102FC00001290CD1C0F8A46211E090F89C32012BC9
:102FD00008D0022B06D0032B04D0FFF7C1FB2846F4
:102FE000BDE8F08149880129F9D1C0F8A422FFF792
:102FF000E9FBF4E72DE9F0410D4604462878002767
:10300000097910F060000BD0202801D0402873D13E
:10301000D4F8B802294682682046904707468CE0DB
:103020006878D8B3012822D0032865D194F89C028F
:10303000022802D003287CD10BE0002979D0802916
:1030400077D02046FFF796FE80212046FFF792FEBC
:1030500073E0688838B931B1802904D0E88810B9A4
:103060002046FFF787FE2046FFF7ACFB65E094F8AB
:103070009C020228E1D003285BD16888D8BB4806AF
:1030800002D02046FFF7F5FC2046FFF79BFBD4F863
:10309000B80229468268204690474EE0FFE794F840
:1030A0009C020026022802D0032842D111E009B177
:1030B00080293ED1080601F07F0000EB800004EB80
:1030C000800101D5143101E001F5AA7102220E60E0
:1030D0002BE0080601F00F0000EB800004EB8000FD
:1030E0000BD5808C40B101F07F0000EB800004EB39
:1030F000800514350CE020E01BE0B0F86401C0B19D
:1031000001F07F0000EB800004EB800505F5AA7557
:1031100041B1802906D02046FFF788FD10B101207B
:10312000286000E02E60022229462046FFF73DFB82
:1031300003E029462046FFF713FB3846BDE8F0813F
:1031400070B50646087800240D4610F0600003D0E4
:10315000202801D0402817D196F89C02012803D0DE
:10316000022801D003280FD1287901280CD8D6F8DD
:10317000B8028268304690470446E888204306D16A
:103180003046FFF71FFB02E03046FFF7E9FA204622
:1031900070BD000070B50A78012302F00F054E786B
:1031A000AB401B4CD0F81C58012E17D045EA034306
:1031B000C0F81C3800EB4210D0F8002B12040BD4DE
:1031C000D0F8002B0B89C978C3F30A031A4344EAE9
:1031D00081410A43C0F8002B002070BD9BB21D4303
:1031E000C0F81C5800EB4210D0F800391B04F3D48F
:1031F000D0F800390D89C978C5F30A0589042B4335
:1032000041EA82510B432343C0F80039E4E7000050
:1032100000800010D0F800196FF30A01C0F80019FF
:10322000D0F8041841F48071C0F8041800207047E9
:1032300070B5044606990A9E049D0D98012916D082
:10324000E06840F04000E060204600F02BF8A16B01
:103250001EB321F48031A163012D07D1A16841F093
:103260000601A160A16841F02001A16070BDA16BC1
:1032700021F48031A163E168094A1140E160E1680D
:1032800021F44011E160012803D1E06840F480108E
:10329000E060204600F006F8DEE741F48031DAE72E
:1032A000BFFFBDFF01220C4902E0521C8A420BD82D
:1032B0000369002BF9DA026942F00102026101227E
:1032C00004E0521C8A4201D9032070470369DB07DE
:1032D000F7D1002070470000400D030030B54C7856
:1032E0000A78012300EB4212012C2CD0D2F8004BBB
:1032F000002C0BDAD2F8004B44F00064C2F8004B0B
:10330000D2F8004B44F08044C2F8004BD0F83C584F
:103310000C7804F00F0403FA04F425EA0444C0F81E
:103320003C48D0F81C48097801F00F018B4024EA92
:103330000341C0F81C18D2F8000B19490840C2F824
:10334000000B002030BDD2F80049002C0BDAD2F877
:10335000004944F00064C2F80049D2F8004944F042
:103360008044C2F80049D0F83C480D7805F00F05BC
:1033700003FA05F5ADB2AC43C0F83C48D0F81C48A0
:10338000097801F00F018B4099B28C43C0F81C48BA
:10339000D2F8000903490840C2F80009D1E700004B
:1033A0000078F3EF007833EC10B5D0F8041821F072
:1033B0000201C0F804180320FDF7CCF9002010BD6D
:1033C00010B5D0F8041841F00201C0F80418032029
:1033D000FDF7C0F9002010BD2DE9F04F00250E4685
:1033E0000446DDF82CC0DDF824B0109F284629469D
:1033F00004EB8002C2F80411401C0F28F8D32046C9
:10340000C7B1806B20F40012A263A06B40F40022CD
:10341000A26308468846C4F8000ED4F80018204677
:10342000C4F80018BCF1010F16D0D0F8001841F014
:10343000030116E0D0F8040840F00202C4F80428A2
:10344000A06B40F40012A263A06B20F40022A263E0
:10345000A06B20F48022DBE7D0F800180BB141F01C
:103460000101C0F80018102100F090FA00B1012508
:10347000204600F07BFA00B101254046C4F81088D0
:10348000C4F81488C4F81C8800214FF000694FF07C
:10349000904A4FF67F3314E004EB4112D2F800C992
:1034A000BCF1000F06DA11B1C2F800A904E0C4F8BB
:1034B000009901E0C2F80009C2F81009C2F8083901
:1034C000491C8E42E8D8002115E000BF04EB4112F0
:1034D000D2F800CBBCF1000F06DA11B1C2F800AB94
:1034E00004E0C4F8009B01E0C2F8000BC2F8100B26
:1034F000C2F8083B491C8E42E8D8D4F8101821F4D1
:103500008072C4F81028A0616FF080406061BBF148
:10351000000F03D1A06940F01000A061A069094923
:103520000843A0610C9818B1A06940F00800A061A0
:10353000012F03D1A06904490843A0612846BDE8D2
:10354000F08F000000383C8004000040816821F0CA
:10355000010181600020704770B50D784E78434CB2
:10356000EBB200EB4313012E1FD0D3F8100B6FF317
:103570001200C3F8100BD3F8100B2040C3F8100B47
:10358000486908B188684861D3F8100B40F40020FE
:10359000C3F8100BD3F8100B8C68C4F3120420434B
:1035A000C3F8100B012A55D058E04E69002ED3F80D
:1035B000106932D06FF31206C3F81069D3F810699E
:1035C0002640C3F810694E698C68A64200D94C6148
:1035D000D3F8104944F40024C3F81049D3F8104933
:1035E0004E69C6F312063443C3F81049012A22D0AB
:1035F00000EB4512D2F8003943F00443C2F8003919
:103600004A6932B3D0F83428097801F00F03012158
:1036100099400A43C0F8342826E02640C3F81069D0
:10362000D3F8104944F40024C3F81049D3F81049E2
:103630006FF31204D8E7096919B100EB4512C2F81B
:10364000141900EB4510D0F8001941F00441C0F8FE
:10365000001909E0C86808B1C3F8140BD3F8000BCF
:1036600040F00440C3F8000B002070BDFFFF07E0EE
:1036700010B5036C134CA34203D9D0F8003B002BC8
:103680001EDB0023C0F8103BD0F8103B43F40023AE
:10369000C0F8103BD0F8103B43F01803C0F8103BC3
:1036A000D0F8103B43F0C043C0F8103B012907D1CC
:1036B000C0F8142BD0F8001B41F08021C0F8001B8B
:1036C000002010BD0A30544F4A780B78012A00EBD5
:1036D00043100BD0D0F8002B22F40012C0F8002BBE
:1036E000C978032914D0022912D017E0D0F8002994
:1036F00022F40012C0F80029C978032901D0022958
:103700000CD1D0F8001941F08051C0F8001905E043
:10371000D0F8001B41F08051C0F8001B002070471A
:103720000A784B78D1B200EB4110012B12D0D0F8BF
:10373000001B002906DB2AB1D0F8001B21F08041D4
:10374000C0F8001BD0F8001B41F40011C0F8001BAA
:1037500000207047D0F80019002906DB2AB1D0F804
:10376000001921F08041C0F80019D0F8001941F487
:103770000011C0F80019EBE7F8B50C784F78774DD9
:10378000E3B26FF0604600EB4313012F26D0D3F86D
:10379000104B6FF31204C3F8104BD3F8104B2C40AE
:1037A000C3F8104B4C69002C74D08D682C44641EF7
:1037B000B4FBF5F4D3F8105BA4B206EAC446354373
:1037C000C3F8105BD3F8105B8E686643C6F312042F
:1037D0002543C3F8105B012A71D0A6E04F691FB3DF
:1037E000D3F810796FF31207C3F81079D3F8107972
:1037F0002F40C3F810794F698D682F447F1EB7FBA7
:10380000F5F506EAC545D3F810693543C3F81059F4
:10381000D3F810594E69C6F312063543C3F8105950
:10382000CD78012D10D01BE0D3F810692E40C3F8DD
:103830001069D3F8105945F40025C3F81059D3F88E
:1038400010596FF3120509E0D3F8105925F0C0455F
:10385000C3F81059D3F8105945F00055C3F8105962
:10386000012A18D000EB4413D3F8004944F0044473
:10387000C3F80049CC78012C2FD04A6962B3D0F844
:103880003428097801F00F03012199400A43C0F858
:10389000342860E036E00A691AB100EB4413C3F83B
:1038A0001429C97801290FD1D0F80818C90500EBEF
:1038B0004411D1F8002903D442F0005202E030E074
:1038C00042F08052C1F8002900EB4410D0F80019F2
:1038D00041F00441C0F800193DE0D0F80848E40583
:1038E000D3F8004902D444F0005401E044F080547D
:1038F000C3F8004900928A8A93B20A78C96800F036
:103900004BF928E0D3F8104B8D68C5F312052C4312
:10391000C3F8104BD3F8104B44F40024C3F8104BF9
:1039200059E7CA680AB1C3F8142BC97801290CD128
:10393000D0F80808C005D3F8000B02D440F00050BE
:1039400001E040F08050C3F8000BD3F8000B40F0CA
:103950000440C3F8000B0020F8BD0000FFFF07E0A3
:10396000816841F001018160002070470021102230
:103970000261054A491C914201D90320704703693D
:10398000DB06F7D400207047400D030000222023FF
:1039900043EA811101610549521C8A4201D9032081
:1039A000704703699B06F7D400207047400D030061
:1039B000D0F8080810F0060004D0022803D006282A
:1039C00001D00F20704702207047406900F00100CD
:1039D0007047000003483022D0F8BC120248FCF7C0
:1039E00020BC0000FC020020CC020020D0F81818F7
:1039F000D0F81C08084080B27047D0F81818D0F8EA
:103A00001C080840000C704710B5D0F81038D0F8EA
:103A1000342801F00F0400EB4110E24002F00102F3
:103A2000D0F8080943EAC212104010BD00EB411162
:103A3000D1F8081BD0F81408084070474169806924
:103A400008407047D21C10B59308002200F5805042
:103A500002E00468521C10C19A42FAD3084610BD15
:103A600010B5C26822F0C042C260012902D029B15B
:103A7000012010BDC16841F0005102E0C16841F071
:103A80008041C1603220FCF765FE002010BDD0F8F7
:103A9000002822F4FE62C0F80028D0F800284FF475
:103AA000FE6303EA01110A43C0F8002800207047B2
:103AB000022A3ED1264A274B0A449A4201D20F21BC
:103AC00038E0254A254B0A449A4201D20E2131E0C2
:103AD000234A244B0A449A4201D20D212AE0224A69
:103AE000224B0A449A4201D20C2123E0204A214B66
:103AF0000A449A4201D20B211CE01F4A1F4B0A4480
:103B00009A4201D20A2115E01D4A1E4B0A449A42EC
:103B10000FD31D4A1D4B0A449A4201D2082109E0E5
:103B20001B4A11441B4A914201D2072102E006219F
:103B300000E00921C26822F47052C260C2684FF4EA
:103B4000705303EA81210A43C260002070470000DD
:103B5000405327FF00350C00401E1BFF40420F0062
:103B600000DC0BFF804F1200808CF9FE20D6130082
:103B700060B6E5FE60E3160000D3CEFE40771B0082
:103B8000C05BB3FEC091210000CA91FE20753800D1
:103B9000E05459FEE09C410010B5029C64B9DB1C66
:103BA0009C0800EB0230002300F5805002E004C9BD
:103BB00002605B1CA342FAD3002010BDFEE7090798
:103BC000090E002804DB00F1E02080F800147047A3
:103BD00000F00F0000F1E02080F8141D704702E0B3
:103BE00008C8121F08C1002AFAD170477047002088
:103BF00001E001C1121F002AFBD1704710B5002857
:103C000021D0114B0022001F196803E0814203D824
:103C10000A4649680029F9D152B11368841A9C42B6
:103C200004D1006818441060104602E0506000E0C3
:103C3000186039B102680B1A934203D10B681A4419
:103C400002604968416010BDA801002088B0FCF7FF
:103C500083FEFEF7BFFAFEF7C1F8FEF7C9F9FEF7DB
:103C600093F800241A490094184801940860084603
:103C7000FCF72BFD00940022694615480194FCF7DF
:103C800003FD102269461248FCF7FEFCFEF73AF9E4
:103C9000FEF77EF90E480F499430C0E900140E4932
:103CA000C0E90241046108218461FDF76CFF4FF413
:103CB000FA741E2209496846FCF7B3FA1E216846C9
:103CC000FEF7B8FC2046FCF745FDF2E70074004023
:103CD000F8010020000C0040FFB1000200000020AD
:103CE000F0B50B30154D20F007010024144A0FE009
:103CF00003688B420BD38B4205D95E1A4318476881
:103D0000C3E9006700E04368136002C004E0021DDD
:103D100010680028ECD12046002802D1286808B19C
:103D20000020F0BD064A07481060074A121A22F028
:103D30000702C0E9002401202860D7E7AC01002079
:103D4000A8010020DC0B0020D80D0020000000009E
:103D50000000000001020304060708097C3D00087A
:103D600000000020B0010000CC0200084C3E00081A
:103D7000B001002028100000EE3B0008A0115452B2
:103D800049454E4C4F4E4754494E48303030521EF4
:103D90001305281B083D041A49041A81041AC1049A
:103DA00013DD271B0811081704030904120132024E
:103DB0001640470ED78C260201020301031A1A038C
:103DC0001206100BFF0901A1011901294015132644
:103DD000FF2F7508954081020F290A041F9102C028
:103DE0002270142053041B084F041A5704196F1132
:103DF00082105324F4138D251C08FD24B41226428E
:103E0000081A3B101AD1101ADF04C11A75181A6962
:103E1000041A81041A5D041409022913010125C042
:103E20003209042A02C51509211101140122401684
:103E300007058103402D0507050107291A09562C9E
:0C3E4000691A31130A0632022A40E4819C
:040000050800018965
:00000001FF
